:100000000C9436040C9462040C9462040C94620404
:100010000C9462040C9462040C9462040C946204C8
:100020000C9462040C9462040C9462040C946204B8
:100030000C9462040C9462040C9462040C946204A8
:100040000C9462040C9462040C9462040C94620498
:100050000C9462040C9462040C9462040C945E0A86
:100060000C9462040C94770C0C94570D0C9462045D
:100070000C9462040C9462040C9462040C94620468
:100080000C9462040C9462040C9462040C94620458
:100090000C94AF0C0C94960D0C9462040C946204B6
:1000A0000C9462040C9462040C9462040C94620438
:1000B0000C9462040C9462040C9462040C94620428
:1000C0000C9462040C9462040C9462040C94E70C8B
:1000D0000C94D50D0C9462040C941F0D0C94140E0A
:1000E0000C94620408000000BE922449123EABAAA0
:1000F000AA2ABECDCCCC4C3E00000080BEABAAAA42
:10010000AA3E00000000BF000000803F0000000089
:1001100000084178D3BB4387D1133D190E3CC3BDC2
:100120004282AD2B3E68EC8276BED98FE1A93E4C6F
:1001300080EFFFBE01C4FF7F3F00000000000763A7
:100140004236B79BD8A71A39685618AEBAAB558C49
:100150001D3CB7CC5763BD6DEDFD753EF617723192
:10016000BF000000803F00002100240027002A007B
:100170002D003000330001010000040107010A01D5
:1001800000002200250028002B002E003100340042
:1001900002010000050108010B01000020002300FE
:1001A000260029002C002F0032000001000003016E
:1001B00006010901050505050705080808080202EA
:1001C00002020A0A080804040404010101010101F1
:1001D00001010303030303030303040707070C0CD4
:1001E0000C0C0C0C0C0C020202020606060606069B
:1001F00006060B0B0B0B0B0B0B0B01021020200840
:100200000810204010204080020102010804020171
:1002100001020408102040808040201008040201E0
:100220008004020180402010080402010804020139
:1002300001020408102040800102040810204080C0
:100240000000090A02080B0C0D0706030401000058
:10025000000000000000000000000000000000009E
:1002600000000000000000000000000011100F005E
:10027000000000000000000000000000000000007E
:100280000000000000000F0180961180FFB1030103
:100290002C2DB203012C2DB306012C2D012C2DB4D5
:1002A0000107C003A20284C101C5C2020A00C30241
:1002B0008A2AC4028AEEC5010E20003601C83A011E
:1002C00005022A04000200812B04000100A0022A7A
:1002D000040000007F2B040000009F04E010021CBB
:1002E00007123732292D29252B3900010310E1107F
:1002F000031D07062E2C292D2E2E373F000002103D
:1003000013800A298064120180321180FF3A81052E
:100310000AB1830006030A360108B6021502B401C9
:1003200000C08202700AC10105C2020102C5823CFE
:10033000380AFC021115E01009160920211B1319B7
:1003400017151E2B0405020EE1900B14081E221D2A
:10035000181E1B1A242B0606020F0A2A040002008C
:10036000812B040002008113800A2980FF00000015
:1003700000003E5B4F5B3E3E6B4F6B3E1C3E7C3E47
:100380001C183C7E3C181C577D571C1C5E7F5E1C55
:1003900000183C1800FFE7C3E7FF0018241800FF0F
:1003A000E7DBE7FF30483A060E2629792926407F09
:1003B000050507407F05253F5A3CE73C5A7F3E1C18
:1003C0001C08081C1C3E7F14227F22145F5F005F04
:1003D0005F06097F017F006689956A6060606060E2
:1003E00094A2FFA29408047E040810207E20100826
:1003F000082A1C08081C2A08081E101010100C1EC1
:100400000C1E0C30383E3830060E3E0E0600000042
:10041000000000005F00000007000700147F147F49
:1004200014242A7F2A122313086462364956205066
:100430000008070300001C2241000041221C002A82
:100440001C7F1C2A08083E0808008070300008083D
:10045000080808000060600020100804023E5149AE
:10046000453E00427F400072494949462141494D7D
:10047000331814127F1027454545393C4A49493104
:1004800041211109073649494936464949291E0083
:10049000001400000040340000000814224114142D
:1004A000141414004122140802015909063E415D4A
:1004B000594E7C1211127C7F494949363E414141D7
:1004C000227F4141413E7F494949417F0909090154
:1004D0003E414151737F0808087F00417F41002061
:1004E00040413F017F081422417F404040407F024D
:1004F0001C027F7F0408107F3E4141413E7F090975
:1005000009063E4151215E7F09192946264949497C
:100510003203017F01033F4040403F1F2040201F26
:100520003F4038403F6314081463030478040361B8
:1005300059494D43007F41414102040810200041C8
:1005400041417F0402010204404040404000030753
:10055000080020545478407F2844443838444444A8
:1005600028384444287F385454541800087E09021F
:1005700018A4A49C787F0804047800447D400020DF
:1005800040403D007F1028440000417F40007C0433
:100590007804787C080404783844444438FC1824EF
:1005A000241818242418FC7C0804040848545454C3
:1005B0002404043F44243C4040207C1C2040201C58
:1005C0003C4030403C44281028444C9090907C445F
:1005D00064544C440008364100000077000000419C
:1005E00036080002010204023C2623263C1EA1A17B
:1005F00061123A4040207A38545455592155557962
:100600004121545478412155547840205455794023
:100610000C1E527212395555555939545454593982
:10062000555454580000457C410002457D4200016C
:10063000457C40F0292429F0F0282528F07C5455E9
:1006400045002054547C547C0A097F493249494969
:10065000323248484832324A4848303A4141217A99
:100660003A42402078009DA0A07D39444444393D61
:100670004040403D3C24FF2424487E4943662B2FC4
:10068000FC2F2BFF0929F620C0887E090320545433
:1006900079410000447D413048484A323840402288
:1006A0007A007A0A0A727D0D19317D2629292F28B0
:1006B000262929292630484D4020380808080808EE
:1006C000080808382F10C8ACBA2F102834FA0000D8
:1006D0007B000008142A142222142A1408AA0055A8
:1006E00000AAAA55AA55AA000000FF00101010FF8A
:1006F00000141414FF001010FF00FF1010F010F091
:10070000141414FC001414F700FF0000FF00FF1481
:1007100014F404FC141417101F10101F101F1414CD
:10072000141F00101010F0000000001F1010101017
:100730001F10101010F010000000FF10101010100B
:1007400010101010FF10000000FF140000FF00FF49
:1007500000001F10170000FC04F4141417101714E5
:1007600014F404F40000FF00F71414141414141407
:10077000F700F7141414171410101F101F1414147A
:10078000F4141010F010F000001F101F0000001FE4
:1007900014000000FC140000F010F01010FF10FF17
:1007A000141414FF141010101F00000000F010FFAC
:1007B000FFFFFFFFF0F0F0F0F0FFFFFF0000000090
:1007C00000FFFF0F0F0F0F0F38444438447C2A2AD4
:1007D0003E147E02020606027E027E0263554941F5
:1007E000633844443C04407E201E2006027E020200
:1007F00099A5E7A5991C2A492A1C4C7201724C3014
:100800004A4D4D303048784830BC625A463D3E49EA
:100810004949007E0101017E2A2A2A2A2A44445F8E
:10082000444440514A444040444A51400000FF0182
:1008300003E080FF000008086B6B08361236243690
:10084000060F090F060000181800000010100030F5
:1008500040FF0101001F01011E00191D1712003C7D
:100860003C3C3C000000000064047E0F11241FBECD
:10087000CFEFD1E2DEBFCDBF00E00CBF12E0A0E0C1
:10088000B2E0E4E4FAE300E00BBF02C007900D928F
:10089000AC3DB107D9F716E0ACEDB2E001C01D9256
:1008A000A430B107E1F718E0CCE6D8E004C0229705
:1008B000FE010E941C1DC836D107C9F70E94EE092F
:1008C0000C9440190C9400008CED92E066E047E037
:1008D00028E00E94881508950F931F930CED12E0F5
:1008E000C80160E070E00E94B413C80160E072E0EB
:1008F0000E94B211C80167E172E00E94B2116091DA
:100900001D0370911E03C8014AE050E00E949F1130
:10091000C80163E272E00E94B2111F910F91089525
:1009200080911603909117038F5F9F4F19F020E07D
:1009300030E004C00E946C0421E030E0C901089559
:10094000EF92FF920F931F93CF93DF938CED92E082
:100950006EE372E00E94B21160911D0370911E035C
:100960008CED92E04AE050E00E949F118CED92E005
:100970006EE572E00E94B21180911B0390911C03FE
:10098000892B89F08CED92E060E672E00E94B21152
:1009900060911B0370911C038CED92E04AE050E0E3
:1009A0000E949F1106C08CED92E062E672E00E9408
:1009B000B211EE24FF248CED92E064E672E00E9416
:1009C000B211E70133E0CC0FDD1F3A95E1F7C15ECC
:1009D000DC4F00E010E0688179816115710539F024
:1009E0008CED92E04AE050E00E949F1106C08CED31
:1009F00092E062E672E00E94B2118CED92E064E651
:100A000072E00E94B2118CED92E06EE572E00E94FD
:100A1000B2110F5F1F4F229604301105E1F60894C2
:100A2000E11CF11C84E0E816F10429F6DF91CF9176
:100A30001F910F91FF90EF900895AF92BF92CF92C8
:100A4000DF92EF92FF920F931F9360E070E080E0DF
:100A500090E024E030E040E050E00E94D7115B01DC
:100A60006C0160E070E080E090E024E030E040E085
:100A700050E00E94D7117B018C0160E070E080E0C3
:100A800090E024E030E040E050E00E94D711DB012C
:100A9000F501EE0FFF1FEE0FFF1FEE0DFF1DEE0F16
:100AA000FF1FE15EFC4F80819181892B71F6AA0FB7
:100AB000BB1FAD56BD4F8D919C91918380831F913B
:100AC0000F91FF90EF90DF90CF90BF90AF9008957F
:100AD000CF92DF92EF92FF920F931F93CF93DF930A
:100AE000CFE1D3E0198218821B821A821D821C82F8
:100AF0001F821E82289683E0CF33D80799F760E0E3
:100B000070E080E090E024E030E040E050E00E94BF
:100B1000D7117B018C0160E070E080E090E024E080
:100B200030E040E050E00E94D711EE0CFF1CEE0CCC
:100B3000FF1CE60EF71EA0EECA2EAFEFDA2ECC0E8B
:100B4000DD1EEE0CFF1CEC0CFD1C81E090E0F701BB
:100B50009183808360E070E080E090E024E030E00A
:100B600040E050E00E94D7117B018C0160E070E012
:100B700080E090E024E030E040E050E00E94D711B7
:100B8000EE0CFF1CEE0CFF1CE60EF71EEE0CFF1C1D
:100B9000CE0CDF1C82E090E0F60191838083DF9130
:100BA000CF911F910F91FF90EF90DF90CF9008951C
:100BB0006F927F928F929F92AF92BF92CF92DF926D
:100BC000EF92FF920F931F93CF93DF9310921C032A
:100BD00010921B0381E090E0909391028093900229
:100BE0002091120330911303121613060CF084C0E7
:100BF0008091100390911103892B09F005C1809019
:100C00001D0390901E03CC24DD24AA24BB2461E0A4
:100C100070E06AC0288139810894611C711C488584
:100C200059852417350721F4C9010197029730F43B
:100C3000CA01820F931F039709F042C0CA01820FB5
:100C4000931F998388831986188663E070E00E9459
:100C5000CA1C882777FD8095982F0E94431A0E940E
:100C6000D41A20E030E040E85FE30E9444199B0181
:100C7000AC0160E070E080E490E40E94771B7B01AF
:100C80008C01B501882777FD8095982F0E94431A23
:100C9000A80197010E9444190E94101A5B01B40137
:100CA000882777FD8095982F0E94431AA801970105
:100CB0000E9444190E94101A4B0160E070E006C0C7
:100CC000232B21F45983488319861886289683E0BC
:100CD0006816710409F09ECF0894C11CD11C84E0F1
:100CE000C816D10409F4A0C1E601CC0FDD1FC15E16
:100CF000DC4F662477248ECF2115310509F484C09A
:100D00008091100390911103892B09F07DC0809090
:100D10001D0390901E03CC24DD24AA24BB2461E093
:100D200070E069C028853985089461087108488198
:100D300059812417350721F4C9010197029730F42E
:100D4000CA01820F931F039709F042C0CA01820FA4
:100D5000931F998788871982188263E070E00E9448
:100D6000CA1C882777FD8095982F0E94431A0E94FD
:100D7000D41A20E030E040E85FE30E9444199B0170
:100D8000AC0160E070E080E490E40E94771B7B019E
:100D90008C01B501882777FD8095982F0E94431A12
:100DA000A80197010E9444190E94101A5B01B40126
:100DB000882777FD8095982F0E94431AA8019701F4
:100DC0000E9444190E94101A4B0160E070E006C0B6
:100DD000232B21F459874887198218822897611498
:100DE000710409F09FCF0894C11CD11C84E0C8167F
:100DF000D10409F419C1E601CC0FDD1FC15DDC4F40
:100E000093E0692E712C8ECF809110039091110385
:100E100097FF84C02115310509F080C080901D0323
:100E200090901E03CC24DD24AA24BB2461E070E052
:100E30006AC0288139810894611C711C4A815B81D8
:100E40002417350721F4C9010197029730F4CA012C
:100E5000820F931F039709F042C0CA01820F931FAC
:100E6000998388831B821A8263E070E00E94CA1C07
:100E7000882777FD8095982F0E94431A0E94D41AE4
:100E800020E030E040E85FE30E9444199B01AC01A0
:100E900060E070E080E490E40E94771B7B018C01AD
:100EA000B501882777FD8095982F0E94431AA801E5
:100EB00097010E9444190E94101A5B01B40188270F
:100EC00077FD8095982F0E94431AA80197010E94F0
:100ED00044190E94101A4B0160E070E006C0232BF9
:100EE00021F4598348831B821A82229683E0681674
:100EF000710409F09ECF0894C11CD11C84E0C8166F
:100F0000D10409F491C0E60183E0CC0FDD1F8A957E
:100F1000E1F7C15EDC4F662477248BCF18161906E3
:100F20000CF08EC0232B09F08BC080901D03909095
:100F30001E03CC24DD24AA24BB2461E070E068C039
:100F40002A813B81089461087108488159812417DE
:100F5000350721F4C9010197029730F4CA01820FC5
:100F6000931F039709F042C0CA01820F931F9B830E
:100F70008A831982188263E070E00E94CA1C882765
:100F800077FD8095982F0E94431A0E94D41A20E082
:100F900030E040E85FE30E9444199B01AC0160E04F
:100FA00070E080E490E40E94771B7B018C01B50126
:100FB000882777FD8095982F0E94431AA8019701F2
:100FC0000E9444190E94101A5B01B401882777FD22
:100FD0008095982F0E94431AA80197010E944419F6
:100FE0000E94101A4B0160E070E006C0232B21F430
:100FF0005B834A831982188222976114710409F075
:101000009FCF0894C11CD11C84E0C816D10461F0A4
:10101000E60103E0CC0FDD1F0A95E1F7CD5DDC4F63
:1010200013E0612E712C8CCF90921E0380921D03D1
:10103000B0921C03A0921B037093910260939002E4
:10104000DF91CF911F910F91FF90EF90DF90CF90A4
:10105000BF90AF909F908F907F906F9008956F9208
:101060007F928F929F92AF92BF92CF92DF92EF9238
:10107000FF920F931F93CF93DF9381E00E942A0A80
:1010800090930D0380930C0380E00E942A0A9093B2
:101090000F0380930E0389E00E94470C5C0190933C
:1010A000150380931403C0900C03D0900D0380911E
:1010B0000803909109038601081B190B1093110373
:1010C00000931003E0900E03F0900F0380910A0349
:1010D00090910B03E701C81BD90BD0931303C09366
:1010E000120371E0672E712C40E050E011C0808146
:1010F0009181892B11F4662477242F5F3F4F32961C
:1011000024303105A1F74F5F5F4F4430510559F04E
:10111000FA0163E0EE0FFF1F6A95E1F7E15EFC4F15
:1011200020E030E0E4CF60E070E08824992418C02B
:101130002D913C911197808191812817390721F0D9
:1011400031E0832E912C07C04F5F5F4F129632968D
:101150004430510569F76F5F7F4F6430710579F056
:10116000CB0123E0880F991F2A95E1F7DC01A15CF0
:10117000BC4FFC01E15EFC4F40E050E0D9CF012BB9
:1011800019F4CD2B09F473C0D0920903C09208035F
:10119000F0920B03E0920A03EFE1F3E0AFE3B3E078
:1011A0008081918111969C938E9382819381139675
:1011B0009C938E9312978481958115969C938E9320
:1011C00014978681978117969C938E9316973896DD
:1011D000189683E0EF33F80719F70E94D80560915D
:1011E000190370911A0340E050E011C08081918191
:1011F000681779070CF4BC012F5F3F4F32962430FB
:101200003105A1F74F5F5F4F4430510559F0FA01A6
:1012100003E0EE0FFF1F0A95E1F7E15EFC4F20E0CF
:1012200030E0E4CF70931A03609319030E94A00486
:1012300068EC70E080E090E00E94A60A672869F000
:101240008091900290919102892B39F08FEF9FEF5E
:10125000909317038093160378C0892819F00E9491
:101260001D0573C010921703109216036EC0AB28B1
:1012700009F05DC060E070E0C0E0D0E017C02D91E3
:101280003C911197808191812817390719F0C1E0AD
:10129000D0E007C04F5F5F4F129632964430510541
:1012A00071F76F5F7F4F6430710579F0CB0113E008
:1012B000880F991F1A95E1F7DC01A15CBC4FFC0176
:1012C000E15EFC4F40E050E0DACFCD2B71F0809131
:1012D0001D0390911E0320911B0330911C03821B60
:1012E000930B90931E0380931D03EFE3F3E0AFE1B4
:1012F000B3E08081918111969C938E93828193813A
:1013000013969C938E9312978481958115969C9346
:101310008E9314978681978117969C938E93169738
:101320003896189683E0EF35F80719F70EC08091CC
:101330001803823751F40E94680510921E03109220
:101340001D0310921C0310921B0388E895E069E6C8
:1013500072E00E94B21160910C0370910D0388E855
:1013600095E04AE050E00E949F1188E895E067E729
:1013700072E00E94B21160910E0370910F0388E831
:1013800095E04AE050E00E949F1188E895E065E80A
:1013900072E00E94B211609114037091150388E805
:1013A00095E04AE050E00E949F1188E895E00E9495
:1013B000C71062E370E080E090E00E94A60ADF912F
:1013C000CF911F910F91FF90EF90DF90CF90BF9042
:1013D000AF909F908F907F906F900895CF93DF9301
:1013E0000E94FF0A88E895E040E855E260E070E07E
:1013F0000E94530E83E00E942A0A0E94F51189E0A0
:1014000060E00E94610B89E061E00E94140C81E0C1
:101410000E942A0A909309038093080380E00E94A7
:101420002A0A90930B0380930A038CED92E062E00A
:101430000E945A150E9468050E949004EC010E94C7
:10144000A0040E942F082097D1F380E090E0DF9164
:10145000CF910895382F863308F0365320917B00C2
:10146000832F86958695869590E08170907043E0F5
:10147000880F991F4A95E1F7277F282B20937B003F
:101480003770809192028295880F880F807C832B21
:1014900080937C0080917A00806480937A008091B0
:1014A0007A0086FDFCCF2091780040917900942F3E
:1014B00080E030E0282B392BC90108951F920F924C
:1014C0000FB60F9211242F933F938F939F93AF9357
:1014D000BF938091630390916403A0916503B091E1
:1014E0006603309167030196A11DB11D232F2D5F67
:1014F0002D3720F02D570196A11DB11D20936703B4
:101500008093630390936403A0936503B093660391
:1015100080915F0390916003A0916103B091620399
:101520000196A11DB11D80935F0390936003A0936A
:101530006103B0936203BF91AF919F918F913F91EF
:101540002F910F900FBE0F901F9018959B01AC012B
:101550007FB7F89480915F0390916003A09161033D
:10156000B091620366B5A89B05C06F3F19F0019664
:10157000A11DB11D7FBFBA2FA92F982F8827860FD5
:10158000911DA11DB11D62E0880F991FAA1FBB1FED
:101590006A95D1F7BC012DC0FFB7F89480915F0325
:1015A00090916003A0916103B0916203E6B5A89B9E
:1015B00005C0EF3F19F00196A11DB11DFFBFBA2F65
:1015C000A92F982F88278E0F911DA11DB11DE2E034
:1015D000880F991FAA1FBB1FEA95D1F7861B970B8F
:1015E000885E9340C8F221503040404050406851DE
:1015F0007C4F211531054105510571F60895789408
:1016000084B5826084BD84B5816084BD85B5826007
:1016100085BD85B5816085BDEEE6F0E080818160A5
:101620008083E1E8F0E010828081826080838081A5
:1016300081608083E0E8F0E0808181608083E1EB7D
:10164000F0E0808184608083E0EBF0E08081816065
:101650008083E1E9F0E08081826080838081816025
:101660008083E0E9F0E0808181608083E1EAF0E05E
:10167000808182608083808181608083E0EAF0E005
:10168000808181608083E1E2F1E0808182608083FB
:10169000808181608083E0E2F1E0808181608083ED
:1016A000EAE7F0E0808184608083808182608083CB
:1016B0008081816080838081806880831092C100F6
:1016C0000895CF93DF93482F50E0CA0186509E4F74
:1016D000FC0134914C545E4FFA018491882369F1E6
:1016E00090E0880F991FFC01EA59FE4FA591B49133
:1016F000FC01E058FE4FC591D491662351F42FB7F9
:10170000F8948C91932F909589238C9388818923C9
:101710000BC0623061F42FB7F8948C91932F9095A1
:1017200089238C938881832B88832FBF06C09FB722
:10173000F8948C91832B8C939FBFDF91CF91089568
:10174000893009F449C08A30A0F4843051F18530E1
:1017500040F4823079F1833000F5813009F063C0C4
:1017600026C0873079F1883098F5863009F05BC063
:1017700025C08D3009F442C08E3028F48B30B1F191
:101780008C30C0F52DC0803109F442C0813109F49C
:1017900045C08F3009F047C037C0809180008F77F7
:1017A00003C0809180008F7D80938000089584B570
:1017B0008F7702C084B58F7D84BD08958091B0007D
:1017C0008F7703C08091B0008F7D8093B000089523
:1017D000809190008F7707C0809190008F7D03C02B
:1017E00080919000877F8093900008958091A00061
:1017F0008F7707C08091A0008F7D03C08091A000EB
:10180000877F8093A0000895809120018F7703C087
:10181000809120018F7D8093200108958091200187
:10182000877F809320010895FF920F931F93F62ED8
:10183000482F50E0CA01805C9D4FFC012491CA01F1
:1018400086509E4FFC0114914C545E4FFA01049156
:101850000023C9F0222319F0822F0E94A00BE02F51
:10186000F0E0EE0FFF1FE058FE4FA591B4919FB737
:10187000F894FF2021F48C911095812302C08C9163
:10188000812B8C939FBF1F910F91FF9008950F9311
:101890001F93482F50E0CA01805C9D4FFC012491AA
:1018A000CA0186509E4FFC0104914C545E4FFA01D0
:1018B0001491112319F420E030E015C0222319F00F
:1018C000822F0E94A00B812F90E0880F991F8656CF
:1018D0009E4FFC01A591B4918C9120E030E08023D3
:1018E00011F021E030E0C9011F910F9108951F927E
:1018F0000F920FB60F920BB60F9211242F933F93B6
:101900004F938F939F93EF93FF934091C600209145
:10191000A8033091A9032F5F3F4F2F733070809140
:10192000AA039091AB032817390759F0E091A80357
:10193000F091A903E859FC4F40833093A903209309
:10194000A803FF91EF919F918F914F913F912F911C
:101950000F900BBE0F900FBE0F901F9018951F9207
:101960000F920FB60F920BB60F9211242F933F9345
:101970004F938F939F93EF93FF934091CE002091CD
:101980003004309131042F5F3F4F2F7330708091BE
:101990003204909133042817390759F0E09130044C
:1019A000F0913104E051FC4F408330933104209397
:1019B0003004FF91EF919F918F914F913F912F9123
:1019C0000F900BBE0F900FBE0F901F9018951F9297
:1019D0000F920FB60F920BB60F9211242F933F93D5
:1019E0004F938F939F93EF93FF934091D600209155
:1019F000B8043091B9042F5F3F4F2F73307080913E
:101A0000BA049091BB042817390759F0E091B80443
:101A1000F091B904E858FB4F40833093B904209308
:101A2000B804FF91EF919F918F914F913F912F912A
:101A30000F900BBE0F900FBE0F901F9018951F9226
:101A40000F920FB60F920BB60F9211242F933F9364
:101A50004F938F939F93EF93FF9340913601209183
:101A60004005309141052F5F3F4F2F7330708091BB
:101A70004205909143052817390759F0E091400538
:101A8000F0914105E050FB4F408330934105209396
:101A90004005FF91EF919F918F914F913F912F9131
:101AA0000F900BBE0F900FBE0F901F9018951F92B6
:101AB0000F920FB60F920BB60F9211242F933F93F4
:101AC0008F939F93EF93FF932091EC033091ED035D
:101AD0008091EE039091EF032817390731F480913C
:101AE000C1008F7D8093C10014C0E091EE03F0919E
:101AF000EF03E455FC4F20818091EE039091EF03BA
:101B000001968F7390709093EF038093EE03209370
:101B1000C600FF91EF919F918F913F912F910F9070
:101B20000BBE0F900FBE0F901F9018951F920F9233
:101B30000FB60F920BB60F9211242F933F938F93F2
:101B40009F93EF93FF9320917404309175048091DB
:101B50007604909177042817390731F48091C900F1
:101B60008F7D8093C90014C0E0917604F0917704D2
:101B7000EC5CFB4F20818091760490917704019674
:101B80008F73907090937704809376042093CE00A7
:101B9000FF91EF919F918F913F912F910F900BBEED
:101BA0000F900FBE0F901F9018951F920F920FB6B7
:101BB0000F920BB60F9211242F933F938F939F9305
:101BC000EF93FF932091FC043091FD048091FE047B
:101BD0009091FF042817390731F48091D1008F7D4F
:101BE0008093D10014C0E091FE04F091FF04E4540E
:101BF000FB4F20818091FE049091FF0401968F732A
:101C000090709093FF048093FE042093D600FF9180
:101C1000EF919F918F913F912F910F900BBE0F905D
:101C20000FBE0F901F9018951F920F920FB60F9234
:101C30000BB60F9211242F933F938F939F93EF93A3
:101C4000FF932091840530918505809186059091C0
:101C500087052817390731F4809131018F7D8093F2
:101C6000310114C0E0918605F0918705EC5BFA4FD5
:101C70002081809186059091870501968F739070E1
:101C8000909387058093860520933601FF91EF910D
:101C90009F918F913F912F910F900BBE0F900FBE90
:101CA0000F901F901895AF92BF92DF92EF92FF9224
:101CB0000F931F93CF93DF93EC017A018B01DD2407
:101CC000403081EE580780E0680780E0780711F027
:101CD000DD24D39491E0A92EB12CEC89FD89DD207F
:101CE00069F0C5010E8C02C0880F991F0A94E2F7B3
:101CF000808360E079E08DE390E005C0108260E8C9
:101D000074E88EE190E0A80197010E94DD1C21504B
:101D1000304040405040569547953795279580E193
:101D20002030380720F0DD2011F0DD24D6CFE889FF
:101D3000F9893083EA89FB892083EE89FF89408114
:101D400021E030E0C9010A8C02C0880F991F0A9473
:101D5000E2F7482B4083EE89FF894081C9010B8C53
:101D600002C0880F991F0A94E2F7482B4083EE893E
:101D7000FF894081C9010C8C02C0880F991F0A9409
:101D8000E2F7482B4083EE89FF8980810D8C02C0E9
:101D9000220F331F0A94E2F7209528232083DF9136
:101DA000CF911F910F91FF90EF90DF90BF90AF9078
:101DB0000895DC011C96ED91FC911D97E05CFF4FAE
:101DC0002191319180819181281B390B2F733070C3
:101DD000C9010895DC011C96ED91FC911D97E05C12
:101DE000FF4F20813181E054F040DF01AE5BBF4FF7
:101DF0008D919C9111972817390719F42FEF3FEF18
:101E000007C08D919C91E80FF91F8081282F30E049
:101E1000C9010895DC011C96ED91FC911D97E05CD1
:101E2000FF4F20813181E054F040DF01AE5BBF4FB6
:101E30008D919C9111972817390719F42FEF3FEFD7
:101E400010C08D919C911197E80FF91F20818D9101
:101E50009C91119701968F73907011969C938E931D
:101E600030E0C9010895FC0186859785DC01A05CFE
:101E7000BF4FFC01EE5BFF4F2D913C91119780818C
:101E8000918128173907C1F70895CF93DF93EC01AB
:101E9000EE85FF85E05CFF4F20813181E054F0400A
:101EA0002F5F3F4F2F733070DF01AE5BBF4F8D91BF
:101EB0009C91119728173907D1F3E05CFF4F80817F
:101EC0009181E054F040E80FF91F6083EE85FF85B3
:101ED000E05CFF4F31832083EE89FF89208181E020
:101EE00090E00D8C02C0880F991F0A94E2F7282B0E
:101EF000208381E090E0DF91CF9108951F931092AD
:101F00008B0510928A0528EE33E040E050E02093E4
:101F10008C0530938D0540938E0550938F056FE9A6
:101F200072E0709389056093880588E693E090934A
:101F30009505809394058CEA93E0909397058093A0
:101F4000960585EC90E0909399058093980584EC34
:101F500090E090939B0580939A0580EC90E090939D
:101F60009D0580939C0581EC90E090939F05809364
:101F70009E0586EC90E09093A1058093A00514E067
:101F80001093A205B3E0B093A305A7E0A093A40526
:101F9000F5E0F093A505E1E0E093A6051092AA050F
:101FA0001092A9052093AB053093AC054093AD0585
:101FB0005093AE057093A8056093A70580EF93E05A
:101FC0009093B4058093B30584E394E09093B605B1
:101FD0008093B5058DEC90E09093B8058093B7059C
:101FE0008CEC90E09093BA058093B90588EC90E072
:101FF0009093BC058093BB0589EC90E09093BE055F
:102000008093BD058EEC90E09093C0058093BF0552
:102010001093C105B093C205A093C305F093C40506
:10202000E093C5051092C9051092C8052093CA0512
:102030003093CB054093CC055093CD057093C705E5
:102040006093C60588E794E09093D3058093D2050A
:102050008CEB94E09093D5058093D40585ED90E0CA
:102060009093D7058093D60584ED90E09093D905A1
:102070008093D80580ED90E09093DB058093DA059E
:1020800081ED90E09093DD058093DC0586ED90E096
:102090009093DF058093DE051093E005B093E10592
:1020A000A093E205F093E305E093E4051092E805C0
:1020B0001092E7052093E9053093EA054093EB057C
:1020C0005093EC057093E6056093E50580E095E09C
:1020D0009093F2058093F10584E495E09093F405E4
:1020E0008093F30585E391E09093F6058093F505E1
:1020F00084E391E09093F8058093F70580E391E005
:102100009093FA058093F90581E391E09093FC05A3
:102110008093FB0586E391E09093FE058093FD0597
:102120001093FF05B0930006A0930106F0930206FA
:10213000E09303061F9108950895CF92DF92EF92E6
:10214000FF920F931F93CF93DF937C016B018A0162
:10215000C0E0D0E00FC0D6016D916D01D701ED91C7
:10216000FC910190F081E02DC7011995C80FD91F8E
:10217000015010400115110571F7CE01DF91CF918B
:102180001F910F91FF90EF90DF90CF900895EF9205
:10219000FF920F931F938C01DC01ED91FC91019054
:1021A000F081E02D6DE019957C01D801ED91FC9155
:1021B0000190F081E02DC8016AE019959C012E0D77
:1021C0003F1DC9011F910F91FF90EF900895CF938C
:1021D000DF93DB010D900020E9F71197A61BB70BE9
:1021E000EC01E881F9810280F381E02DAD011995C0
:1021F000DF91CF9108954F925F927F928F929F923D
:10220000AF92BF92CF92DF92EF92FF920F931F9304
:10221000DF93CF93CDB7DEB7A1970FB6F894DEBFAB
:102220000FBECDBF2C01742ECB01223008F42AE062
:1022300019A231E2C32ED12CCC0EDD1E822E9924A0
:10224000AA24BB24672D752FA50194010E94DD1CD3
:1022500079018A01C801B701A50194010E94971C68
:10226000472D461B0894C108D1084A3014F4405D3C
:1022700001C0495CF6014083E114F1040105110538
:1022800021F07E2C5F2DC801DDCFC201B6010E9476
:10229000E710A1960FB6F894DEBF0FBECDBFCF9169
:1022A000DF911F910F91FF90EF90DF90CF90BF9043
:1022B000AF909F908F907F905F904F900895CF92B6
:1022C000DF92EF92FF920F931F93CF93DF93EC0176
:1022D0006A017B012115310541F4E881F981019002
:1022E000F081E02D642F19951FC02A303105D1F4FB
:1022F00077FF17C0E881F9810190F081E02D6DE250
:1023000019958C0144275527BA014C195D096E09AE
:102310007F09CE012AE00E94FB109801280F391F87
:1023200004C02AE00E94FB109C01C901DF91CF91FB
:102330001F910F91FF90EF90DF90CF900895EF9253
:10234000FF920F931F937B019A010027F7FC0095E2
:10235000102FB801A7010E945F111F910F91FF90EC
:10236000EF9008950E94E7100895EF92FF920F9367
:102370001F937B018C01611571058105910529F47D
:1023800020E030E040E050E00BC00E943219A8018C
:1023900097010E94FF1CAC01CB01DA019C01AD0149
:1023A000B901CA011F910F91FF90EF900895EF922C
:1023B000FF920F931F937B018C01621773078407B1
:1023C000950764F4261B370B480B590BCA01B9015A
:1023D0000E94B511E60EF71E081F191FB701C801AC
:1023E0001F910F91FF90EF900895009729F0BC0185
:1023F00080E090E00E9437190895DC0158968C9196
:102400005897882329F06EBD0DB407FEFDCF0895BF
:1024100030E840E050E070E0832F90E0862397237F
:102420005996ED91FC915A9796962C919697892BF7
:1024300021F08081822B808304C080812095282315
:1024400020835B96ED91FC915C97808197969C919F
:102450009797892B80835B96ED91FC915C97908197
:1024600097968C91979780958923808336954F5FB7
:102470005F4F4830510581F608950F931F938C01EB
:10248000DC015F96ED91FC919097908199968C91EB
:1024900099978095892380835D96ED91FC915E9755
:1024A000908198968C91809589238083C8010E94A1
:1024B000FD11D8015D96ED91FC915E978081989613
:1024C0009C91892B80831F910F9108950F931F93E7
:1024D0008C01DC015F96ED91FC919097808199963B
:1024E0009C919997892B80835D96ED91FC915E97E5
:1024F000908198968C91809589238083C8010E9451
:10250000FD11D8015D96ED91FC915E9780819896C2
:102510009C91892B80831F910F910895CF92DF9218
:10252000EF92FF920F931F937C01162FC42ED22E91
:102530006AE20E943D12C70160E00E946612F70144
:1025400062A5610FC7010E946612C70160E00E9488
:102550006612F70162A56D0DC7010E946612C701E0
:102560006BE20E943D12C70160E00E946612F70113
:1025700063A56C0DC7010E946612C70160E00E944E
:102580006612F70163A5600FC7010E946612C701BA
:102590006CE20E943D121F910F91FF90EF90DF902F
:1025A000CF900895FF920F931F93CF93DF93EC0189
:1025B000F22E132F77FD2EC088859985681779072D
:1025C0004CF557FD27C08A859B854817590714F598
:1025D000262F2F5F042F0F5FCE010E948E12EF8DEA
:1025E000F8A1808199A5892B8083ED8DFE8D908146
:1025F00088A5809589238083CE01612F0E94FD11DB
:10260000CE016F2D0E94FD11ED8DFE8D808198A56C
:10261000892B8083DF91CF911F910F91FF900895B7
:10262000DF92EF92FF920F931F93CF93DF93EC0112
:10263000FB017901D02E8885998568177907D4F533
:102640002A853B8542175307ACF5C701840F951FB8
:10265000281739071CF47901E41AF50A042F0150F0
:102660000E0DCE016E2F2E2F0E948E12EF8DF8A12F
:10267000808199A5892B8083ED8DFE8D908188A521
:1026800080958923808308C0CE01612F0E94FD11AF
:10269000CE016D2D0E94FD110894E108F1088FEF25
:1026A000E8168FEFF80681F7ED8DFE8D808198A5F5
:1026B000892B8083DF91CF911F910F91FF90EF9035
:1026C000DF900895DF92EF92FF920F931F93CF93C5
:1026D000DF93EC01FA017901D02E28853985621744
:1026E0007307D4F58A859B8548175907ACF5C70150
:1026F000860F971F281739071CF47901E61AF70A85
:10270000262F21502E0DCE014E2F0E2F0E948E12FD
:10271000EF8DF8A1808199A5892B8083ED8DFE8DA9
:10272000908188A580958923808308C0CE01612F80
:102730000E94FD11CE016D2D0E94FD110894E1084B
:10274000F1088FEFE8168FEFF80681F7ED8DFE8D1B
:10275000808198A5892B8083DF91CF911F910F9164
:10276000FF90EF90DF900895EF92FF920F931F93E9
:10277000FC017B01A081B181208531850285138513
:102780001E960D90BC91A02D60E070E040E050E0FE
:10279000FD0119951F910F91FF90EF900895AF9251
:1027A000BF92CF92DF92EF92FF920F931F93CF933E
:1027B000DF936C015901E801DC0118962D913C91E1
:1027C0001997621773070CF057C01A96ED91FC9198
:1027D0001B974E175F070CF04FC0C501860F971F60
:1027E000281739071CF45901A61AB70ACE01840F1D
:1027F000951FE817F9071CF4EF01C41BD50B262F12
:1028000021502A0D042F01500C0FC6010E948E1278
:10281000D6015F96ED91FC919097808199969C915D
:102820009997892B80835D96ED91FC915E979081BD
:1028300098968C918095892380838E010EC0C60165
:102840006F2D0E94FD11C6016E2D0E94FD11219772
:102850001C161D06A4F3015010401016110614F4A6
:10286000E501F6CFD6015D96ED91FC915E978081F2
:1028700098969C91892B8083DF91CF911F910F9126
:10288000FF90EF90DF90CF90BF90AF9008956623B8
:1028900011F460E201C061E20E943D120895AF921E
:1028A000BF92CF92DF92EF92FF920F931F93CF933D
:1028B000DF935C01FB01EB012196D49031C08E01C6
:1028C0000F5F1F4FFE016491C5010E943D12780108
:1028D0000894E11CF11CF801C4900C2D0F77E7015E
:1028E000102F08C0FE012196E491C5016E2F0E94B1
:1028F000661211501123B1F7E701C00FD11DC7FEB9
:102900000EC0FE018491682F70E06F3F710511F4D5
:1029100064EF71E0219680E090E00E94A60ADA94CC
:10292000DD2069F6DF91CF911F910F91FF90EF901D
:10293000DF90CF90BF90AF9008950F931F93CF93E8
:10294000DF93EC018B011BA61AA68AA161E00E940D
:10295000610B89A161E00E94610BE9A14E2F50E05B
:10296000FA01EC54FE4FE491F0E0EE0FFF1FE05847
:10297000FE4F859194919E8F8D8FEAA12E2F30E08E
:10298000F901EC54FE4FE491F0E0EE0FFF1FE05828
:10299000FE4F8591949198A38F8F46505E4FFA0118
:1029A000849188A726503E4FF901849189A7888D8C
:1029B000882361F00E94C81580E00E94B71581E06D
:1029C0000E94A91580E00E94B2153DC08DA161E072
:1029D0000E94610B8CA161E00E94610BEDA14E2F62
:1029E00050E0FA01EC54FE4FE491F0E0EE0FFF1FCF
:1029F000E058FE4FA591B491BC8FAB8FECA12E2F68
:102A000030E0F901EC54FE4FE491F0E0EE0FFF1FCF
:102A1000E058FE4F859194919A8F898F46505E4F72
:102A2000FA0194919FA326503E4FF90184918EA301
:102A30008C91909598239C93E98DFA8D90818EA12D
:102A4000809589238083ED8DFE8D908188A580956A
:102A5000892380838BA1882309F161E00E94610BA7
:102A60008BA161E00E94140C64EF71E080E090E0C3
:102A70000E94A60A8BA160E00E94140C64EF71E032
:102A800080E090E00E94A60A8BA161E00E94140CF5
:102A900064EF71E080E090E00E94A60A0115110544
:102AA00021F0CE01B8010E944F14DF91CF911F9108
:102AB0000F9108951F93CF93DF93EC01162F66E8D3
:102AC00072E00E949D14112351F4CE0161EC72E07A
:102AD0000E944F1482E08AA781E08BA705C0CE0137
:102AE0006EEC72E00E944F14CE016BED72E00E941A
:102AF0004F14123041F4CE0166E30E943D12CE0124
:102B000060EC0E9466121F8BDF91CF911F91089598
:102B1000DF92EF92FF920F931F938C01F62EE42E1B
:102B2000D22E60E870E040EA50E00E94E7158FEA9C
:102B300092E0F80191838083F1A2E2A2D3A281E026
:102B4000808F15A214A21F910F91FF90EF90DF903C
:102B50000895882319F48CB5806202C08CB58F7DEE
:102B60008CBD08959CB5937F982B9CBD08952CB582
:102B7000382F33702C7F322B3CBD2DB590E09595CE
:102B800087959595879581702E7F822B8DBD0895B1
:102B900084E361E00E94610B83E361E00E94610BCA
:102BA00085E361E00E94610B84E360E00E94140C05
:102BB00083E360E00E94140C85E361E00E94140C42
:102BC0008CB580618CBD8CB580648CBD0895FC0192
:102BD0001382128287EC92E09183808375836483F1
:102BE000578346837187608753874287158A158686
:102BF00014861786168621E0248B8FEF9FEF938B28
:102C0000828B918B808B268B08952F923F924F92CF
:102C10005F926F927F928F929F92AF92BF92CF926C
:102C2000DF92EF92FF920F931F93DF93CF9300D029
:102C30000F92CDB7DEB73C017C836B836A015901EB
:102C4000FA82E982222433249801241B350B37FFB2
:102C500003C0309521953F4FC5014B815C81841B9A
:102C6000950B97FF03C0909581959F4F821793070F
:102C70005CF481E0282E312CC601CB80DC809C8363
:102C80008B83C80185015C018B819C81A816B906E4
:102C900044F4C501AB80BC809C838B83C801860152
:102CA0006C012501AB81BC814A1A5B0A7801EC18E2
:102CB000FD08F7FE04C0F094E194F108F394C01607
:102CC000D10624F088248A94982C03C0B1E08B2E7E
:102CD000912CC20162E070E00E94CA1C8B0125C0E9
:102CE000D301ED91FC912114310441F00480F58170
:102CF000E02DC301B6014B815C8107C00480F581E2
:102D0000E02DC3016B817C81A60129813A8119954F
:102D10000E191F0917FF04C0C80CD91C040D151D7E
:102D2000EB81FC813196FC83EB834B815C81A416A3
:102D3000B506B4F60F900F900F900F90CF91DF91E2
:102D40001F910F91FF90EF90DF90CF90BF90AF90C9
:102D50009F908F907F906F905F904F903F902F90BB
:102D600008954F925F926F927F928F929F92AF924F
:102D7000BF92CF92DF92EF92FF920F931F936C015D
:102D80005B014A0139012801DC01ED91FC910284CB
:102D9000F385E02D87011995D601ED91FC91A401F1
:102DA00041505040440D551D0284F385E02DC6016D
:102DB000B50193011995D601ED91FC910084F1853F
:102DC000E02DC601B501A40192011995D601ED913E
:102DD000FC910894A108B108A60CB71C0084F185E9
:102DE000E02DC601B501A401920119951F910F9123
:102DF000FF90EF90DF90CF90BF90AF909F908F901B
:102E00007F906F905F904F900895CF92DF92EF92F6
:102E1000FF920F931F93DC016B017801ED91FC9100
:102E20008A0101501040020F131F0680F781E02D28
:102E3000960119951F910F91FF90EF90DF90CF9021
:102E40000895CF92DF92EF92FF920F931F93DC01D0
:102E50006A01C9017801ED91FC9111979B01215004
:102E60003040280F391F0680F781E02DCD01860103
:102E700019951F910F91FF90EF90DF90CF900895DB
:102E80006F927F928F929F92AF92BF92CF92DF927A
:102E9000EF92FF920F931F93CF93DF935C013A0160
:102EA00069014801EB01C60ED71E0DC0D501ED9199
:102EB000FC910084F185E02DC501BE01A3019401C0
:102EC000870119952196CC15DD0584F3DF91CF910B
:102ED0001F910F91FF90EF90DF90CF90BF90AF9038
:102EE0009F908F907F906F900895EF92FF920F9335
:102EF0001F93FC017B01A081B18120853185028572
:102F000013851E960D90BC91A02D60E070E040E00E
:102F100050E0FD0119951F910F91FF90EF900895DA
:102F20002F923F924F925F926F927F928F929F92D9
:102F3000AF92BF92CF92DF92EF92FF920F931F93C7
:102F4000DF93CF93CDB7DEB72F970FB6F894DEBFE0
:102F50000FBECDBF5C015E834D8318870F83FA8659
:102F6000E986CB86DC0118968D919C91199768179C
:102F700079070CF0A4C01A968D919C911B97481765
:102F800059070CF09CC0EC2DF0E0FF87EE87CF01D5
:102F9000880F991F8E0F9F1F880F991F860F971FED
:102FA000181619060CF08BC0CF01F3E0880F991F9B
:102FB000FA95E1F7840F951F181619060CF07FC0DB
:102FC00085E0289FA00111245A8349832B011B010E
:102FD0001C825C81553011F480E005C0E981FA81E2
:102FE000E359FC4F84912C863D866D807E804301A1
:102FF0001B82C82EDD2480FF1CC0D501ED91FC9101
:10300000BB85B13049F40480F581E02DC501B201E2
:10301000A3012F81388522C00684F785E02DC501E4
:103020006C857D85A4012E853F858901EF80F8841C
:1030300023C0E985FA852F813885E217F307E9F087
:10304000D501ED91FC91BB85B13051F40480F5813F
:10305000E02DC501B201A30129853A8519950DC05E
:103060000684F785E02DC5016C857D85A4012E853C
:103070003F858901E984FA841995EB81EF5FEB8341
:103080002E853F85820E931E0894611C711CE830CA
:1030900021F0D594C7948C2DACCF3C813F5F3C830D
:1030A0004E855F85240E351E0894411C511C898174
:1030B0009A8101969A838983363009F08ACF2F96B8
:1030C0000FB6F894DEBF0FBECDBFCF91DF911F9139
:1030D0000F91FF90EF90DF90CF90BF90AF909F90B7
:1030E0008F907F906F905F904F903F902F900895BA
:1030F000CF92EF92FF920F931F93CF93DF93EC0148
:10310000262F6A3061F42C8930E003E0220F331F50
:103110000A95E1F78E859F85820F931F37C06D302A
:10312000C9F16C857D854E855F8508891989EA8896
:10313000FB88CC880E9490172C8986E0289FB001DC
:1031400011248C859D85680F791F7D876C878E89FA
:10315000882301F1422F50E08AEF9FEF9C01429FAC
:10316000C001439F900D529F900D112428853985F1
:10317000820F931F861797076CF413E0440F551FB7
:103180001A95E1F78E859F85840F951F9F878E87FF
:103190001D861C8681E090E0DF91CF911F910F91F9
:1031A000FF90EF90CF9008950895AF92BF92CF9285
:1031B000DF92EF92FF920F931F93CF93DF93EC0177
:1031C000A880B980CA80DB80A114B104C104D104F5
:1031D00041F484E2A82E89EDB82E8BE5C82E87E055
:1031E000D82EC601B5012DE133EF41E050E00E9439
:1031F000FF1C27EA31E440E050E00E94971C7B016D
:103200008C01C601B5012DE133EF41E050E00E9491
:10321000FF1CCA01B9012CEE34EF4FEF5FEF0E94A3
:10322000971C6E0D7F1D801F911F97FF04C061507A
:10323000704080409048688379838A839B839B0198
:10324000AC015F77B901CA01DF91CF911F910F9156
:10325000FF90EF90DF90CF90BF90AF9008950E94C5
:10326000D51808958CE892E00E94D51808956093CF
:103270008C0270938D0280938E0290938F0208953A
:10328000F8940C94201D5058BB27AA270ED04DC18E
:103290003ED130F043D120F031F49F3F11F41EF4C1
:1032A00033C10EF4E095E7FB29C1E92F4FD180F33C
:1032B000BA17620773078407950718F071F49EF533
:1032C00067C10EF4E0950B2EBA2FA02D0B01B901AA
:1032D00090010C01CA01A0011124FF27591B99F08C
:1032E000593F50F4503E68F11A16F040A22F232F98
:1032F000342F4427585FF3CF469537952795A795E8
:10330000F0405395C9F77EF41F16BA0B620B730B8E
:10331000840BBAF09150A1F0FF0FBB1F661F771FFF
:10332000881FC2F70EC0BA0F621F731F841F48F4B4
:10333000879577956795B795F7959E3F08F0B3CF3A
:103340009395880F08F09927EE0F97958795089524
:103350000CD0EBC0E3D040F0DAD030F021F45F3F86
:1033600019F0CCC0511115C1CFC0F0D098F39923FA
:10337000C9F35523B1F3951B550BBB27AA27621739
:103380007307840738F09F5F5F4F220F331F441F7E
:10339000AA1FA9F333D00E2E3AF0E0E830D09150B6
:1033A0005040E695001CCAF729D0FE2F27D0660FA3
:1033B000771F881FBB1F261737074807AB07B0E8E2
:1033C00009F0BB0B802DBF01FF2793585F4F2AF0F8
:1033D0009E3F510568F092C0DCC05F3FECF3983E21
:1033E000DCF3869577956795B795F7959F5FC9F755
:1033F000880F911D9695879597F90895E1E0660FDE
:10340000771F881FBB1F621773078407BA0720F056
:10341000621B730B840BBA0BEE1F88F7E0950895BF
:1034200004D06894B111B5C0089598D088F09F5722
:1034300090F0B92F9927B751A0F0D1F0660F771F00
:10344000881F991F1AF0BA95C9F712C0B13081F0E0
:103450009FD0B1E008959CC0672F782F8827B85F70
:1034600039F0B93FCCF3869577956795B395D9F741
:103470003EF490958095709561957F4F8F4F9F4F4B
:103480000895E89409C097FB3EF490958095709557
:1034900061957F4F8F4F9F4F9923A9F0F92F96E9A0
:1034A000BB279395F695879577956795B795F11115
:1034B000F8CFFAF4BB0F11F460FF1BC06F5F7F4FB2
:1034C0008F4F9F4F16C0882311F096E911C07723C4
:1034D00021F09EE8872F762F05C0662371F096E8CD
:1034E000862F70E060E02AF09A95660F771F881F9C
:1034F000DAF7880F9695879597F9089597F99F675A
:1035000080E870E060E008959FEF80EC089500246B
:103510000A941616170618060906089500240A9438
:1035200012161306140605060895092E0394000CBE
:1035300011F4882352F0BB0F40F4BF2B11F460FF4D
:1035400004C06F5F7F4F8F4F9F4F089557FD905876
:10355000440F551F59F05F3F71F04795880F97FB57
:10356000991F61F09F3F79F0879508951216130611
:103570001406551FF2CF4695F1DF08C01616170640
:103580001806991FF1CF8695710561050894089575
:10359000E894BB2766277727CB0197F908950EF0AB
:1035A00023C1B2CF6894AACFD9DFC8F39923D1F34E
:1035B000C6F3DF93CF931F930F93FF92C92FDD279D
:1035C00088232AF02197660F771F881FDAF720E0FB
:1035D00030E040E85FEB9FE3883920F0803E30F038
:1035E00021968F7751DEE4EEF0E003C04DDEE1E19D
:1035F000F1E008D18B01BE01EC01FB2E6F57710980
:103600007595771F880B990B3EDF28E132E741E380
:103610005FE316D0AF2D9801AE01FF900F911F917F
:10362000CF91DF9142DE81CF0BD07FCF70DF28F0CA
:1036300075DF18F0952309F061CF66CF1124A9CF6B
:1036400085DFA0F3959FD1F3950F50E0551F629F42
:10365000F001729FBB27F00DB11D639FAA27F00DEB
:10366000B11DAA1F649F6627B00DA11D661F829F12
:103670002227B00DA11D621F739FB00DA11D621FF7
:10368000839FA00D611D221F749F3327A00D611D14
:10369000231F849F600D211D822F762F6A2F1124F6
:1036A0009F5750408AF0E1F088234AF0EE0FFF1F49
:1036B000BB1F661F771F881F91505040A9F79E3F80
:1036C000510570F01BCF65CF5F3FECF3983EDCF304
:1036D000869577956795B795F795E7959F5FC1F7BD
:1036E000FE2B880F911D9695879597F90895FA01FD
:1036F000EE0FFF1F30962105310599F16115710517
:1037000061F48038BFE39B0749F1689490388105E4
:1037100061F08038BFEF9B0741F0992342F5FF3FEE
:10372000E1053105210511F1E8940894E795D901E7
:10373000AA2329F4AB2FBE2FF85FD0F310C0FF5F90
:1037400070F4A695E0F7F73950F019F0FF3A38F425
:103750009F779F930CD00F9007FC905808953EF0F0
:10376000D3CE60E070E080E89FE308954FE79F7755
:103770005F934F933F932F9317DF2F913F914F917B
:103780005F9152DF05C019F40EF0B8CE01CFBCCE68
:10379000E5DEC8F39638C0F707F80F92E8942BE3FC
:1037A0003AEA48EB5FE74EDF0F920F920F924DB768
:1037B0005EB70F9289D0EEE3F1E024D04F915F9194
:1037C000EF91FF91E595EE1FFF1F49F0FE57E0686E
:1037D0004427EE0F441FFA95E1F74195550B40D071
:1037E0000F9007FE34C008959F3F31F0915020F4B0
:1037F000879577956795B795880F911D96958795CD
:1038000097F90895DF93CF931F930F93FF92EF9251
:10381000DF927B018C01689405C0DA2EEF0110DF86
:10382000FE01E894A5912591359145915591AEF30E
:10383000EF013BDDFE019701A801DA9479F7DF90F3
:10384000EF90FF900F911F91CF91DF9108959B0111
:10385000AC0160E070E080E89FE37ACD4FCEC4CF4A
:103860007DDEE8F39923D9F3940F511DBBF39150FA
:10387000504094F059F0882332F0660F771F881F6C
:1038800091505040C1F79E3F510544F7880F911D5C
:103890009695879597F908955F3FACF0983E9CF018
:1038A000BB27869577956795B79508F4B160939592
:1038B000C1F7BB0F58F711F460FFE8CF6F5F7F4F80
:1038C0008F4F9F4FE3CF65CEFA01DC01AA0FBB1FDC
:1038D0009B01AC01BF5728F4222733274427507897
:1038E0001FC0B75188F4AB2F002446953795279514
:1038F000011CA395D2F3002069F0220F331F441F4F
:10390000B395DAF30DD0BFCC61307105A0E88A071A
:10391000B94630F49B01AC01662777278827907859
:10392000309621F020833183428353830895629F30
:10393000D001739FF001829FE00DF11D649FE00DA7
:10394000F11D929FF00D839FF00D749FF00D659F08
:10395000F00D9927729FB00DE11DF91F639FB00D07
:10396000E11DF91FBD01CF0111240895AA1BBB1B46
:1039700051E107C0AA1FBB1FA617B70710F0A61B6F
:10398000B70B881F991F5A95A9F780959095BC0190
:10399000CD01089597FB092E07260AD077FD04D0A4
:1039A000E5DF06D000201AF4709561957F4F0895E9
:1039B000F6F7909581959F4F0895A1E21A2EAA1BC4
:1039C000BB1BFD010DC0AA1FBB1FEE1FFF1FA217CF
:1039D000B307E407F50720F0A21BB30BE40BF50BCC
:1039E000661F771F881F991F1A9469F76095709555
:1039F000809590959B01AC01BD01CF01089597FB87
:103A0000092E05260ED057FD04D0D7DF0AD0001CA2
:103A100038F450954095309521953F4F4F4F5F4F6B
:103A20000895F6F790958095709561957F4F8F4F2B
:103A30009F4F0895EE0FFF1F0590F491E02D19940C
:043A4000F894FFCF28
:103A44000A20202047414D45204F56455220212031
:103A540021202020200A002020202053434F5245BB
:103A64003A20000A20544F502035204F4620544815
:103A7400452053434F5245204C49535420000A20BB
:103A840020544852454553212050555A5A4C4520FC
:103A940047414D45202053434F52453A20000A00E8
:103AA4002B0020002020207C002066696E616C4879
:103AB4006F72697A3A20002066696E616C5665728D
:103AC40074693A20002053454C3D20000100000059
:103AD400010001010002000300060000000000458F
:103AE4000F9D10D90E0A0FEA0E330F000000007864
:103AF400189D10D212051610136213B116CF13B409
:103B04001347140000000078189D109C100516053A
:0C3B1400172117B11640177517D41800C0
:00000001FF
