:100000000C9436040C9462040C9462040C94620404
:100010000C9462040C9462040C9462040C946204C8
:100020000C9462040C9462040C9462040C946204B8
:100030000C9462040C9462040C9462040C946204A8
:100040000C9462040C9462040C9462040C94620498
:100050000C9462040C9462040C9462040C94D70A0D
:100060000C9462040C94F00C0C94D00D0C9462046B
:100070000C9462040C9462040C9462040C94620468
:100080000C9462040C9462040C9462040C94620458
:100090000C94280D0C940F0E0C9462040C946204C2
:1000A0000C9462040C9462040C9462040C94620438
:1000B0000C9462040C9462040C9462040C94620428
:1000C0000C9462040C9462040C9462040C94600D11
:1000D0000C944E0E0C9462040C94980D0C948D0E9E
:1000E0000C94620408000000BE922449123EABAAA0
:1000F000AA2ABECDCCCC4C3E00000080BEABAAAA42
:10010000AA3E00000000BF000000803F0000000089
:1001100000084178D3BB4387D1133D190E3CC3BDC2
:100120004282AD2B3E68EC8276BED98FE1A93E4C6F
:1001300080EFFFBE01C4FF7F3F00000000000763A7
:100140004236B79BD8A71A39685618AEBAAB558C49
:100150001D3CB7CC5763BD6DEDFD753EF617723192
:10016000BF000000803F00002100240027002A007B
:100170002D003000330001010000040107010A01D5
:1001800000002200250028002B002E003100340042
:1001900002010000050108010B01000020002300FE
:1001A000260029002C002F0032000001000003016E
:1001B00006010901050505050705080808080202EA
:1001C00002020A0A080804040404010101010101F1
:1001D00001010303030303030303040707070C0CD4
:1001E0000C0C0C0C0C0C020202020606060606069B
:1001F00006060B0B0B0B0B0B0B0B01021020200840
:100200000810204010204080020102010804020171
:1002100001020408102040808040201008040201E0
:100220008004020180402010080402010804020139
:1002300001020408102040800102040810204080C0
:100240000000090A02080B0C0D0706030401000058
:10025000000000000000000000000000000000009E
:1002600000000000000000000000000011100F005E
:10027000000000000000000000000000000000007E
:1002800000000000000000000000003E5B4F5B3EED
:100290003E6B4F6B3E1C3E7C3E1C183C7E3C181C4B
:1002A000577D571C1C5E7F5E1C00183C1800FFE742
:1002B000C3E7FF0018241800FFE7DBE7FF30483AE8
:1002C000060E2629792926407F050507407F05254A
:1002D0003F5A3CE73C5A7F3E1C1C08081C1C3E7FD2
:1002E00014227F22145F5F005F5F06097F017F0099
:1002F0006689956A606060606094A2FFA2940804B9
:100300007E040810207E201008082A1C08081C2AD9
:1003100008081E101010100C1E0C1E0C30383E3831
:1003200030060E3E0E06000000000000005F0000D8
:100330000007000700147F147F14242A7F2A122349
:100340001308646236495620500008070300001C59
:100350002241000041221C002A1C7F1C2A08083E62
:100360000808008070300008080808080000606075
:100370000020100804023E5149453E00427F4000E3
:1003800072494949462141494D331814127F1027BB
:10039000454545393C4A494931412111090736490A
:1003A000494936464949291E0000140000004034DE
:1003B00000000008142241141414141400412214E3
:1003C0000802015909063E415D594E7C1211127C0A
:1003D0007F494949363E414141227F4141413E7F6B
:1003E000494949417F090909013E414151737F084B
:1003F00008087F00417F41002040413F017F0814F1
:1004000022417F404040407F021C027F7F04081051
:100410007F3E4141413E7F090909063E4151215E2F
:100420007F09192946264949493203017F01033FC3
:100430004040403F1F2040201F3F4038403F631452
:1004400008146303047804036159494D43007F4154
:1004500041410204081020004141417F0402010291
:1004600004404040404000030708002054547840B6
:100470007F284444383844444428384444287F384A
:100480005454541800087E090218A4A49C787F08CC
:1004900004047800447D40002040403D007F102847
:1004A000440000417F40007C047804787C08040408
:1004B000783844444438FC1824241818242418FCA0
:1004C0007C08040408485454542404043F44243C45
:1004D0004040207C1C2040201C3C4030403C4428B4
:1004E0001028444C9090907C4464544C440008364E
:1004F00041000000770000004136080002010204BC
:10050000023C2623263C1EA1A161123A4040207ADB
:100510003854545559215555794121545478412125
:100520005554784020545579400C1E52721239555A
:100530005555593954545459395554545800004557
:100540007C410002457D420001457C40F029242980
:10055000F0F0282528F07C545545002054547C5454
:100560007C0A097F49324949493232484848323287
:100570004A4848303A4141217A3A42402078009D29
:10058000A0A07D39444444393D4040403D3C24FFD7
:100590002424487E4943662B2FFC2F2BFF0929F684
:1005A00020C0887E090320545479410000447D41D5
:1005B0003048484A32384040227A007A0A0A727D2E
:1005C0000D19317D2629292F282629292926304849
:1005D0004D4020380808080808080808382F10C8B7
:1005E000ACBA2F102834FA00007B000008142A143B
:1005F0002222142A1408AA005500AAAA55AA55AA0C
:10060000000000FF00101010FF00141414FF001071
:1006100010FF00FF1010F010F0141414FC0014145C
:10062000F700FF0000FF00FF1414F404FC1414177B
:10063000101F10101F101F1414141F00101010F0A2
:10064000000000001F101010101F10101010F010EC
:10065000000000FF101010101010101010FF1000FC
:100660000000FF140000FF00FF00001F1017000033
:10067000FC04F414141710171414F404F40000FF0D
:1006800000F714141414141414F700F714141417A6
:100690001410101F101F141414F4141010F010F084
:1006A00000001F101F0000001F14000000FC1400B9
:1006B00000F010F01010FF10FF141414FF141010AD
:1006C000101F00000000F010FFFFFFFFFFF0F0F030
:1006D000F0F0FFFFFF0000000000FFFF0F0F0F0F03
:1006E0000F38444438447C2A2A3E147E020206060F
:1006F000027E027E0263554941633844443C044013
:100700007E201E2006027E020299A5E7A5991C2ADA
:10071000492A1C4C7201724C304A4D4D3030487899
:100720004830BC625A463D3E494949007E010101BC
:100730007E2A2A2A2A2A44445F444440514A44409B
:1007400040444A51400000FF0103E080FF000008E0
:10075000086B6B083612362436060F090F060000A8
:1007600018180000001010003040FF0101001F01A8
:10077000011E00191D1712003C3C3C3C000000000B
:10078000000F0180961180FFB103012C2DB20301EF
:100790002C2DB306012C2D012C2DB40107C003A272
:1007A0000284C101C5C2020A00C3028A2AC4028AA5
:1007B000EEC5010E20003601C83A0105022A0400E8
:1007C0000200812B04000100A0022A040000007F27
:1007D0002B040000009F04E010021C07123732298E
:1007E0002D29252B3900010310E110031D07062ECA
:1007F0002C292D2E2E373F0000021013800A29804D
:1008000064120180321180FF3A81050AB18300062B
:10081000030A360108B6021502B40100C082027054
:100820000AC10105C2020102C5823C380AFC02115C
:1008300015E01009160920211B131917151E2B048A
:1008400005020EE1900B14081E221D181E1B1A240F
:100850002B0606020F0A2A04000200812B04000264
:10086000008113800A2980FF6404F70F11241FBE42
:10087000CFEFD1E2DEBFCDBF00E00CBF12E0A0E0C1
:10088000B2E0E4E5FBE300E00BBF02C007900D928D
:10089000A23FB107D9F716E0A2EFB2E001C01D9266
:1008A000AF30B107E1F718E0CCE6D8E004C02297FA
:1008B000FE010E94A41DC836D107C9F70E947E0A16
:1008C0000C94C8190C94000082EF92E066E047E0B7
:1008D00028E00E94FE1808950F931F9302EF12E084
:1008E000C80160E070E00E942A17C80160E070E073
:1008F00040E050E00E946315C80160E00E946F155F
:10090000C80163E00E946915C80160E072E00E94BE
:100910002B12C8016EE072E00E942B12C80161E048
:100920000E946915C80166E172E00E942B12609175
:10093000240370912503C8014AE050E00E94181278
:100940001F910F91089580911E0390911F038F5F57
:100950009F4F19F020E030E004C00E946C0421E0B9
:1009600030E0C9010895EF92FF920F931F93CF9348
:10097000DF9382EF92E060E070E00E942A1782EF3E
:1009800092E060E070E040E050E00E94631582EF8A
:1009900092E060E00E946F1582EF92E063E272E005
:1009A0000E942B1282EF92E06DE372E00E942B1204
:1009B000609124037091250382EF92E04AE050E0B9
:1009C0000E94181282EF92E06BE472E00E942B12F8
:1009D0008091220390912303892B89F082EF92E08A
:1009E0006DE472E00E942B12609122037091230348
:1009F00082EF92E04AE050E00E94181206C082EFB7
:100A000092E06EE572E00E942B1282EF92E06BE5BD
:100A100072E00E942B1200E010E082EF92E060E6AC
:100A200072E00E942B12E80133E0CC0FDD1F3A95F3
:100A3000E1F7CA5DDC4FEE24FF248881998100979D
:100A400071F18A3091052CF482EF92E06EE572E04C
:100A500008C00A978A35910578F482EF92E067E63C
:100A600072E00E942B126881798182EF92E04AE065
:100A700050E00E9418121FC082EF92E067E672E019
:100A80000E942B126881798182EF92E04AE050E067
:100A90000E94181282EF92E068E672E010C082EFC6
:100AA00092E06EE572E00E942B1282EF92E06EE51A
:100AB00072E00E942B1282EF92E064E672E00E94E4
:100AC0002B120894E11CF11C229684E0E816F10434
:100AD00009F0B3CF82EF92E06BE572E00E942B1237
:100AE0000F5F1F4F0430110509F097CFDF91CF91B1
:100AF0001F910F91FF90EF900895AF92BF92CF9208
:100B0000DF92EF92FF920F931F9360E070E080E01E
:100B100090E024E030E040E050E00E9450125B01A1
:100B20006C0160E070E080E090E024E030E040E0C4
:100B300050E00E9450127B018C0160E070E080E088
:100B400090E024E030E040E050E00E945012DB01F1
:100B5000F501EE0FFF1FEE0FFF1FEE0DFF1DEE0F55
:100B6000FF1FEA5DFC4F80819181892B71F6AA0FEE
:100B7000BB1FA755BD4F8D919C91918380831F9181
:100B80000F91FF90EF90DF90CF90BF90AF900895BE
:100B9000EF92FF920F931F93CF93DF93C6E2D3E0C0
:100BA000198218821B821A821D821C821F821E8259
:100BB000289683E0C634D80799F760E070E080E0BB
:100BC00090E024E030E040E050E00E9450127B01D1
:100BD00060E070E080E090E024E030E040E050E051
:100BE0000E9450128B01C701880F991F880F991F0F
:100BF000800F911FA097880F991FC80FD91F81E000
:100C000090E09983888360E070E080E090E024E0E9
:100C100030E040E050E00E945012EB0160E070E0F4
:100C200080E090E024E030E040E050E00E9450128C
:100C3000EC16FD0619F40617170729F3CC0FDD1F74
:100C4000CC0FDD1FC60FD71FCC0FDD1FCA5DDC4FD9
:100C500082E090E099838883DF91CF911F910F917B
:100C6000FF90EF9008956F927F928F929F92AF9234
:100C7000BF92CF92DF92EF92FF920F931F93CF9389
:100C8000DF939C01109223031092220381E090E0F5
:100C90009093A3028093A202121613060CF084C054
:100CA0006115710509F008C1609024037090250357
:100CB000CC24DD2461E070E0AA24BB246DC028812F
:100CC00039810894811C911C488559852417350762
:100CD00021F4C9010197029730F4CA01820F931FD2
:100CE000039709F045C0CA01820F931F9983888337
:100CF0001986188683309105C4F163E070E00E9484
:100D0000521D882777FD8095982F0E94CB1A0E944C
:100D10005C1B20E030E040E85FE30E94CC199B01BF
:100D2000AC0160E070E080E490E40E94FF1B7B0176
:100D30008C01B501882777FD8095982F0E94CB1AEA
:100D4000A80197010E94CC190E94981A5B01B30177
:100D5000882777FD8095982F0E94CB1AA8019701CC
:100D60000E94CC190E94981A3B0160E070E006C016
:100D7000232B21F45983488319861886289683E00B
:100D80008816910409F09BCF0894C11CD11C84E003
:100D9000C816D10409F4A2C1E601CC0FDD1FCA5D5B
:100DA000DC4F882499248BCF2115310509F484C0A8
:100DB0006115710509F080C06090240370902503CF
:100DC000CC24DD2461E070E0AA24BB246CC028851B
:100DD000398508948108910848815981241735077D
:100DE00021F4C9010197029730F4CA01820F931FC1
:100DF000039709F045C0CA01820F931F998788871E
:100E00001982188283309105C4F163E070E00E947A
:100E1000521D882777FD8095982F0E94CB1A0E943B
:100E20005C1B20E030E040E85FE30E94CC199B01AE
:100E3000AC0160E070E080E490E40E94FF1B7B0165
:100E40008C01B501882777FD8095982F0E94CB1AD9
:100E5000A80197010E94CC190E94981A5B01B30166
:100E6000882777FD8095982F0E94CB1AA8019701BB
:100E70000E94CC190E94981A3B0160E070E006C005
:100E8000232B21F4598748871982188228978114C7
:100E9000910409F09CCF0894C11CD11C84E0C816B1
:100EA000D10409F41BC1E601CC0FDD1FCA5CDC4F85
:100EB00083E0882E912C8BCF77FF87C021153105D9
:100EC00009F083C06090240370902503CC24DD24B6
:100ED00061E070E0AA24BB246DC0288139810894A8
:100EE000811C911C4A815B812417350721F4C901BB
:100EF0000197029730F4CA01820F931F039709F0FC
:100F000045C0CA01820F931F998388831B821A826E
:100F100083309105C4F163E070E00E94521D882780
:100F200077FD8095982F0E94CB1A0E945C1B20E0D1
:100F300030E040E85FE30E94CC199B01AC0160E027
:100F400070E080E490E40E94FF1B7B018C01B501FE
:100F5000882777FD8095982F0E94CB1AA8019701CA
:100F60000E94CC190E94981A5B01B301882777FD73
:100F70008095982F0E94CB1AA80197010E94CC1946
:100F80000E94981A3B0160E070E006C0232B21F418
:100F9000598348831B821A82229683E08816910423
:100FA00009F09BCF0894C11CD11C84E0C816D10461
:100FB00009F494C0E60103E0CC0FDD1F0A95E1F7C8
:100FC000CA5DDC4F8824992488CF161617060CF0CA
:100FD00091C0232B09F08EC06090240370902503EC
:100FE000CC24DD2461E070E0AA24BB246BC02A81FC
:100FF0003B8108948108910848815981241735075D
:1010000021F4C9010197029730F4CA01820F931F9E
:10101000039709F045C0CA01820F931F9B838A83FF
:101020001982188283309105C4F163E070E00E9458
:10103000521D882777FD8095982F0E94CB1A0E9419
:101040005C1B20E030E040E85FE30E94CC199B018C
:10105000AC0160E070E080E490E40E94FF1B7B0143
:101060008C01B501882777FD8095982F0E94CB1AB7
:10107000A80197010E94CC190E94981A5B01B30144
:10108000882777FD8095982F0E94CB1AA801970199
:101090000E94CC190E94981A3B0160E070E006C0E3
:1010A000232B21F45B834A831982188222978114AF
:1010B000910409F09CCF0894C11CD11C84E0C8168F
:1010C000D10461F0E60113E0CC0FDD1F1A95E1F7C2
:1010D000C65DDC4FB3E08B2E912C89CF7093A302B9
:1010E0006093A2027092250360922403B0922303BE
:1010F000A0922203DF91CF911F910F91FF90EF906B
:10110000DF90CF90BF90AF909F908F907F906F9027
:1011100008952F923F924F925F926F927F928F929B
:101120009F92AF92BF92CF92DF92EF92FF920F9376
:101130001F93CF93DF9381E00E94A30A1C0180E0FC
:101140000E94A30A2C0189E00E94C00C8091A40295
:101150009091A50290936703809366038091A60205
:101160009091A702909369038093680381E00E94A5
:10117000A30A8C0180E00E94A30A7C0189E00E94FE
:10118000C00C3C01C8018219930964E670E00E941A
:10119000521D6B01C2018E199F0964E670E00E9426
:1011A000521DEB01E090A402F090A502EC0CFD1C96
:1011B000F092A502E092A4020091A6021091A7026B
:1011C000060F171F1093A7020093A60221E0822E9C
:1011D000912C40E050E011C080819181892B11F465
:1011E000882499242F5F3F4F329624303105A1F790
:1011F0004F5F5F4F4430510559F0FA0193E0EE0F15
:10120000FF1F9A95E1F7EA5DFC4F20E030E0E4CF64
:1012100060E070E0AA24BB2418C02D913C91119786
:10122000808191812817390721F081E0A82EB12C07
:1012300007C04F5F5F4F129632964430510569F7F1
:101240006F5F7F4F6430710579F0CB01B3E0880F99
:10125000991FBA95E1F7DC01AA5BBC4FFC01EA5D7E
:10126000FC4F40E050E0D9CF809166039091670336
:101270008E159F0541F48091680390916903801752
:10128000910709F46DC0E6E2F3E0A6E4B3E08081E3
:10129000918111969C938E938281938113969C9356
:1012A0008E9312978481958115969C938E931497B3
:1012B0008681978117969C938E93169738961896E9
:1012C00083E0E634F80719F7CE01B6010E94330631
:1012D000609120037091210340E050E011C08081B3
:1012E0009181681779070CF4BC012F5F3F4F32964C
:1012F00024303105A1F74F5F5F4F4430510559F05D
:10130000FA01A3E0EE0FFF1FAA95E1F7EA5DFC4F9B
:1013100020E030E0E4CF70932103609320030E942B
:10132000B30462E370E080E090E00E941F0B892824
:1013300069F08091A2029091A302892B39F08FEF7E
:101340009FEF90931F0380931E036AC0AB2819F090
:101350000E947D0565C010921F0310921E0360C09D
:101360006114710409F05CC060E070E0C0E0D0E09E
:1013700017C02D913C9111978081918128173907D1
:1013800019F0C1E0D0E007C04F5F5F4F1296329670
:101390004430510571F76F5F7F4F6430710579F00C
:1013A000CB0133E0880F991F3A95E1F7DC01AA5B86
:1013B000BC4FFC01EA5DFC4F40E050E0DACFCD2BA2
:1013C00071F08091240390912503209122033091A4
:1013D0002303821B930B9093250380932403E6E45D
:1013E000F3E0A6E2B3E08081918111969C938E9305
:1013F0008281938113969C938E9312978481958119
:1014000015969C938E9314978681978117969C933B
:101410008E9316973896189693E0E636F90719F7E3
:101420000E94A304892B09F056C083E995E06AE67F
:1014300072E00E942B1283E995E060E070E04AE0E0
:1014400050E00E94181283E995E065E772E00E947F
:101450002B1260911E0370911F0383E995E04AE00F
:1014600050E00E94181283E995E061E872E00E9462
:101470002B126091A4027091A50283E995E04AE0E5
:1014800050E00E94181283E995E06CE872E00E9437
:101490002B126091A6027091A70283E995E04AE0C1
:1014A00050E00E94181283E995E067E972E00E941B
:1014B0002B1283E995E0B3014AE050E00E94181234
:1014C00083E995E00E9440116AE070E080E090E0DE
:1014D0000E941F0B3BCEDF91CF911F910F91FF9088
:1014E000EF90DF90CF90BF90AF909F908F907F90C4
:1014F0006F905F904F903F902F9008950E94780BCF
:1015000083E995E040E855E260E070E00E94CC0E8F
:1015100083E00E94A30A0E946E1289E060E00E94AC
:10152000DA0B89E061E00E948D0C82EF92E062E0CC
:101530000E94D0180E94C8050E94B3040E94890826
:1015400080E090E00895382F863308F036532091DC
:101550007B00832F86958695869590E081709070AC
:1015600043E0880F991F4A95E1F7277F282B2093A6
:101570007B0037708091A8028295880F880F807C4D
:10158000832B80937C0080917A00806480937A0022
:1015900080917A0086FDFCCF2091780040917900FF
:1015A000942F80E030E0282B392BC90108951F9239
:1015B0000F920FB60F9211242F933F938F939F9307
:1015C000AF93BF9380916E0390916F03A0917003CE
:1015D000B0917103309172030196A11DB11D232FAB
:1015E0002D5F2D3720F02D570196A11DB11D2093A1
:1015F000720380936E0390936F03A0937003B09374
:10160000710380916A0390916B03A0916C03B09178
:101610006D030196A11DB11D80936A0390936B0326
:10162000A0936C03B0936D03BF91AF919F918F9185
:101630003F912F910F900FBE0F901F9018959B0117
:10164000AC017FB7F89480916A0390916B03A091ED
:101650006C03B0916D0366B5A89B05C06F3F19F090
:101660000196A11DB11D7FBFBA2FA92F982F8827E2
:10167000860F911DA11DB11D62E0880F991FAA1F41
:10168000BB1F6A95D1F7BC012DC0FFB7F8948091BC
:101690006A0390916B03A0916C03B0916D03E6B562
:1016A000A89B05C0EF3F19F00196A11DB11DFFBF1A
:1016B000BA2FA92F982F88278E0F911DA11DB11D1C
:1016C000E2E0880F991FAA1FBB1FEA95D1F7861B7E
:1016D000970B885E9340C8F2215030404040504004
:1016E00068517C4F211531054105510571F608956A
:1016F000789484B5826084BD84B5816084BD85B5ED
:10170000826085BD85B5816085BDEEE6F0E08081B3
:1017100081608083E1E8F0E01082808182608083D4
:10172000808181608083E0E8F0E080818160808357
:10173000E1EBF0E0808184608083E0EBF0E0808189
:1017400081608083E1E9F0E0808182608083808134
:1017500081608083E0E9F0E0808181608083E1EA5C
:10176000F0E0808182608083808181608083E0EA14
:10177000F0E0808181608083E1E2F1E0808182603D
:101780008083808181608083E0E2F1E080818160FC
:101790008083EAE7F0E080818460808380818260DA
:1017A00080838081816080838081806880831092C3
:1017B000C1000895CF93DF93482F50E0CA018650AF
:1017C0009E4FFC0134914C545E4FFA018491882362
:1017D00069F190E0880F991FFC01EA59FE4FA5912D
:1017E000B491FC01E058FE4FC591D491662351F4A9
:1017F0002FB7F8948C91932F909589238C9388819F
:1018000089230BC0623061F42FB7F8948C91932F29
:10181000909589238C938881832B88832FBF06C062
:101820009FB7F8948C91832B8C939FBFDF91CF91BE
:101830000895893009F449C08A30A0F4843051F108
:10184000853040F4823079F1833000F5813009F041
:1018500063C026C0873079F1883098F5863009F06A
:101860005BC025C08D3009F442C08E3028F48B3027
:10187000B1F18C30C0F52DC0803109F442C0813106
:1018800009F445C08F3009F047C037C0809180000F
:101890008F7703C0809180008F7D809380000895B2
:1018A00084B58F7702C084B58F7D84BD0895809103
:1018B000B0008F7703C08091B0008F7D8093B0001F
:1018C0000895809190008F7707C0809190008F7D60
:1018D00003C080919000877F80939000089580914D
:1018E000A0008F7707C08091A0008F7D03C08091FA
:1018F000A000877F8093A0000895809120018F77BA
:1019000003C0809120018F7D8093200108958091F4
:101910002001877F809320010895FF920F931F93EA
:10192000F62E482F50E0CA01805C9D4FFC012491A7
:10193000CA0186509E4FFC0114914C545E4FFA012F
:1019400004910023C9F0222319F0822F0E94190C60
:10195000E02FF0E0EE0FFF1FE058FE4FA591B4918D
:101960009FB7F894FF2021F48C911095812302C039
:101970008C91812B8C939FBF1F910F91FF900895A5
:101980000F931F93482F50E0CA01805C9D4FFC01CC
:101990002491CA0186509E4FFC0104914C545E4F25
:1019A000FA011491112319F420E030E015C022232C
:1019B00019F0822F0E94190C812F90E0880F991F37
:1019C00086569E4FFC01A591B4918C9120E030E0A9
:1019D000802311F021E030E0C9011F910F9108959B
:1019E0001F920F920FB60F920BB60F9211242F93E6
:1019F0003F934F938F939F93EF93FF934091C60034
:101A00002091B3033091B4032F5F3F4F2F73307099
:101A10008091B5039091B6032817390759F0E091EA
:101A2000B303F091B403ED58FC4F40833093B403FB
:101A30002093B303FF91EF919F918F914F913F912D
:101A40002F910F900BBE0F900FBE0F901F90189507
:101A50001F920F920FB60F920BB60F9211242F9375
:101A60003F934F938F939F93EF93FF934091CE00BB
:101A700020913B0430913C042F5F3F4F2F73307017
:101A800080913D0490913E042817390759F0E09168
:101A90003B04F0913C04E550FC4F408330933C0400
:101AA00020933B04FF91EF919F918F914F913F9134
:101AB0002F910F900BBE0F900FBE0F901F90189597
:101AC0001F920F920FB60F920BB60F9211242F9305
:101AD0003F934F938F939F93EF93FF934091D60043
:101AE0002091C3043091C4042F5F3F4F2F73307097
:101AF0008091C5049091C6042817390759F0E091E8
:101B0000C304F091C404ED57FB4F40833093C404E9
:101B10002093C304FF91EF919F918F914F913F913B
:101B20002F910F900BBE0F900FBE0F901F90189526
:101B30001F920F920FB60F920BB60F9211242F9394
:101B40003F934F938F939F93EF93FF934091360171
:101B500020914B0530914C052F5F3F4F2F73307014
:101B600080914D0590914E052817390759F0E09165
:101B70004B05F0914C05E55FFA4F408330934C05DF
:101B800020934B05FF91EF919F918F914F913F9142
:101B90002F910F900BBE0F900FBE0F901F901895B6
:101BA0001F920F920FB60F920BB60F9211242F9324
:101BB0003F938F939F93EF93FF932091F70330917F
:101BC000F8038091F9039091FA032817390731F44B
:101BD0008091C1008F7D8093C10014C0E091F90312
:101BE000F091FA03E954FC4F20818091F903909120
:101BF000FA0301968F7390709093FA038093F90320
:101C00002093C600FF91EF919F918F913F912F916B
:101C10000F900BBE0F900FBE0F901F9018951F9244
:101C20000F920FB60F920BB60F9211242F933F9382
:101C30008F939F93EF93FF9320917F0430918004C3
:101C400080918104909182042817390731F48091A2
:101C5000C9008F7D8093C90014C0E0918104F09188
:101C60008204E15CFB4F2081809181049091820489
:101C700001968F73907090938204809381042093D7
:101C8000CE00FF91EF919F918F913F912F910F90F7
:101C90000BBE0F900FBE0F901F9018951F920F92C2
:101CA0000FB60F920BB60F9211242F933F938F9381
:101CB0009F93EF93FF932091070530910805809142
:101CC000090590910A052817390731F48091D10050
:101CD0008F7D8093D10014C0E0910905F0910A0531
:101CE000E953FB4F20818091090590910A050196E7
:101CF0008F73907090930A05809309052093D60006
:101D0000FF91EF919F918F913F912F910F900BBE7B
:101D10000F900FBE0F901F9018951F920F920FB645
:101D20000F920BB60F9211242F933F938F939F9393
:101D3000EF93FF9320918F0530919005809191054D
:101D4000909192052817390731F4809131018F7DE8
:101D50008093310114C0E0919105F0919205E15B0F
:101D6000FA4F2081809191059091920501968F7391
:101D70009070909392058093910520933601FF9186
:101D8000EF919F918F913F912F910F900BBE0F90EC
:101D90000FBE0F901F901895AF92BF92DF92EF92F7
:101DA000FF920F931F93CF93DF93EC017A018B0186
:101DB000DD24403081EE580780E0680780E0780736
:101DC00011F0DD24D39491E0A92EB12CEC89FD898A
:101DD000DD2069F0C5010E8C02C0880F991F0A949E
:101DE000E2F7808360E079E08DE390E005C0108247
:101DF00060E874E88EE190E0A80197010E94651DFB
:101E00002150304040405040569547953795279592
:101E100080E12030380720F0DD2011F0DD24D6CF1E
:101E2000E889F9893083EA89FB892083EE89FF8973
:101E3000408121E030E0C9010A8C02C0880F991F5F
:101E40000A94E2F7482B4083EE89FF894081C9015B
:101E50000B8C02C0880F991F0A94E2F7482B40832D
:101E6000EE89FF894081C9010C8C02C0880F991F3F
:101E70000A94E2F7482B4083EE89FF8980810D8C1C
:101E800002C0220F331F0A94E2F7209528232083F3
:101E9000DF91CF911F910F91FF90EF90DF90BF9056
:101EA000AF900895DC011C96ED91FC911D97E05CCC
:101EB000FF4F2191319180819181281B390B2F7324
:101EC0003070C9010895DC011C96ED91FC911D97BD
:101ED000E05CFF4F20813181E054F040DF01AE5BD8
:101EE000BF4F8D919C9111972817390719F42FEF47
:101EF0003FEF07C08D919C91E80FF91F8081282F3B
:101F000030E0C9010895DC011C96ED91FC911D970C
:101F1000E05CFF4F20813181E054F040DF01AE5B97
:101F2000BF4F8D919C9111972817390719F42FEF06
:101F30003FEF10C08D919C911197E80FF91F208100
:101F40008D919C91119701968F73907011969C932F
:101F50008E9330E0C9010895FC0186859785DC01E8
:101F6000A05CBF4FFC01EE5BFF4F2D913C911197A0
:101F70008081918128173907C1F70895CF93DF93A6
:101F8000EC01EE85FF85E05CFF4F20813181E0545C
:101F9000F0402F5F3F4F2F733070DF01AE5BBF4FBC
:101FA0008D919C91119728173907D1F3E05CFF4F71
:101FB00080819181E054F040E80FF91F6083EE8545
:101FC000FF85E05CFF4F31832083EE89FF8920810C
:101FD00081E090E00D8C02C0880F991F0A94E2F70F
:101FE000282B208381E090E0DF91CF9108951F930B
:101FF000109296051092950528EE33E040E050E0EF
:1020000020939705309398054093990550939A052E
:1020100065EB72E0709394056093930583E793E01A
:102020009093A00580939F0587EB93E09093A20582
:102030008093A10585EC90E09093A4058093A3057F
:1020400084EC90E09093A6058093A50580EC90E049
:102050009093A8058093A70581EC90E09093AA0542
:102060008093A90586EC90E09093AC058093AB0536
:1020700014E01093AD05B3E0B093AE05A7E0A093D4
:10208000AF05F5E0F093B005E1E0E093B105109203
:10209000B5051092B4052093B6053093B70540936B
:1020A000B8055093B9057093B3056093B2058BEFF3
:1020B00093E09093BF058093BE058FE394E09093E7
:1020C000C1058093C0058DEC90E09093C30580938B
:1020D000C2058CEC90E09093C5058093C40588EC14
:1020E00090E09093C7058093C60589EC90E09093AB
:1020F000C9058093C8058EEC90E09093CB05809342
:10210000CA051093CC05B093CD05A093CE05F093EE
:10211000CF05E093D0051092D4051092D3052093FB
:10212000D5053093D6054093D7055093D8057093C5
:10213000D2056093D10583E894E09093DE05809307
:10214000DD0587EC94E09093E0058093DF0585ED55
:1021500090E09093E2058093E10584ED90E0909308
:10216000E4058093E30580ED90E09093E60580938D
:10217000E50581ED90E09093E8058093E70586ED15
:1021800090E09093EA058093E9051093EB05B093F6
:10219000EC05A093ED05F093EE05E093EF051092AA
:1021A000F3051092F2052093F4053093F505409362
:1021B000F6055093F7057093F1056093F0058BE0F9
:1021C00095E09093FD058093FC058FE495E0909356
:1021D000FF058093FE0585E391E0909301068093CF
:1021E000000684E391E0909303068093020680E367
:1021F00091E0909305068093040681E391E090932B
:1022000007068093060686E391E090930906809383
:10221000080610930A06B0930B06A0930C06F093E1
:102220000D06E0930E061F9108950895CF92DF9258
:10223000EF92FF920F931F93CF93DF937C016B017B
:102240008A01C0E0D0E00FC0D6016D916D01D701C9
:10225000ED91FC910190F081E02DC7011995C80F17
:10226000D91F015010400115110571F7CE01DF9102
:10227000CF911F910F91FF90EF90DF90CF90089535
:10228000EF92FF920F931F938C01DC01ED91FC9173
:102290000190F081E02D6DE019957C01D801ED9160
:1022A000FC910190F081E02DC8016AE019959C0134
:1022B0002E0D3F1DC9011F910F91FF90EF900895C2
:1022C000CF93DF93DB010D900020E9F71197A61B58
:1022D000B70BEC01E881F9810280F381E02DAD01BB
:1022E0001995DF91CF9108954F925F927F928F92CF
:1022F0009F92AF92BF92CF92DF92EF92FF920F9395
:102300001F93DF93CF93CDB7DEB7A1970FB6F894A5
:10231000DEBF0FBECDBF2C01742ECB01223008F4DE
:102320002AE019A231E2C32ED12CCC0EDD1E822E62
:102330009924AA24BB24672D752FA50194010E941E
:10234000651D79018A01C801B701A50194010E94A8
:102350001F1D472D461B0894C108D1084A3014F4AC
:10236000405D01C0495CF6014083E114F1040105C0
:10237000110521F07E2C5F2DC801DDCFC201B60111
:102380000E946011A1960FB6F894DEBF0FBECDBFBC
:10239000CF91DF911F910F91FF90EF90DF90CF9041
:1023A000BF90AF909F908F907F905F904F900895D7
:1023B000CF92DF92EF92FF920F931F93CF93DF9311
:1023C000EC016A017B012115310541F4E881F981B5
:1023D0000190F081E02D642F19951FC02A3031053E
:1023E000D1F477FF17C0E881F9810190F081E02DE9
:1023F0006DE219958C0144275527BA014C195D09E6
:102400006E097F09CE012AE00E9474119801280FFD
:10241000391F04C02AE00E9474119C01C901DF9198
:10242000CF911F910F91FF90EF90DF90CF90089583
:10243000EF92FF920F931F937B019A010027F7FC05
:102440000095102FB801A7010E94D8111F910F917C
:10245000FF90EF9008950E9460110895EF92FF920F
:102460000F931F937B018C01611571058105910507
:1024700029F420E030E040E050E00BC00E94BA199F
:10248000A80197010E94871DAC01CB01DA019C01D4
:10249000AD01B901CA011F910F91FF90EF9008950E
:1024A000EF92FF920F931F937B018C0162177307CA
:1024B0008407950764F4261B370B480B590BCA0198
:1024C000B9010E942E12E60EF71E081F191FB70150
:1024D000C8011F910F91FF90EF900895009729F088
:1024E000BC0180E090E00E94BF190895FC011382B6
:1024F000128285EC92E09183808375836483578395
:1025000046837187608753874287158A15861486AC
:102510001786168621E0248B8FEF9FEF938B828B9B
:10252000918B808B268B08952F923F924F925F92D2
:102530006F927F928F929F92AF92BF92CF92DF92D3
:10254000EF92FF920F931F93DF93CF9300D00F92E0
:10255000CDB7DEB73C017C836B836A015901FA82F7
:10256000E982222433249801241B350B37FF03C052
:10257000309521953F4FC5014B815C81841B950BA4
:1025800097FF03C0909581959F4F821793075CF446
:1025900081E0282E312CC601CB80DC809C838B838C
:1025A000C80185015C018B819C81A816B90644F4A1
:1025B000C501AB80BC809C838B83C80186016C0104
:1025C0002501AB81BC814A1A5B0A7801EC18FD0831
:1025D000F7FE04C0F094E194F108F394C016D1061C
:1025E00024F088248A94982C03C0B1E08B2E912C7F
:1025F000C20162E070E00E94521D8B0125C0D30130
:10260000ED91FC912114310441F00480F581E02D1D
:10261000C301B6014B815C8107C00480F581E02DC8
:10262000C3016B817C81A60129813A8119950E191C
:102630001F0917FF04C0C80CD91C040D151DEB8120
:10264000FC813196FC83EB834B815C81A416B5063B
:10265000B4F60F900F900F900F90CF91DF911F91D4
:102660000F91FF90EF90DF90CF90BF90AF909F9031
:102670008F907F906F905F904F903F902F90089534
:102680004F925F926F927F928F929F92AF92BF9282
:10269000CF92DF92EF92FF920F931F936C015B0139
:1026A0004A0139012801DC01ED91FC910284F38596
:1026B000E02D87011995D601ED91FC91A4014150BF
:1026C0005040440D551D0284F385E02DC601B5012F
:1026D00093011995D601ED91FC910084F185E02DCF
:1026E000C601B501A40192011995D601ED91FC91A5
:1026F0000894A108B108A60CB71C0084F185E02D50
:10270000C601B501A401920119951F910F91FF9087
:10271000EF90DF90CF90BF90AF909F908F907F9081
:102720006F905F904F900895CF92DF92EF92FF925B
:102730000F931F93DC016B017801ED91FC918A01ED
:1027400001501040020F131F0680F781E02D960103
:1027500019951F910F91FF90EF90DF90CF90089502
:10276000CF92DF92EF92FF920F931F93DC016A01E9
:10277000C9017801ED91FC9111979B0121503040E6
:10278000280F391F0680F781E02DCD0186011995AC
:102790001F910F91FF90EF90DF90CF9008956F926F
:1027A0007F928F929F92AF92BF92CF92DF92EF92E1
:1027B000FF920F931F93CF93DF935C013A0169015E
:1027C0004801EB01C60ED71E0DC0D501ED91FC915D
:1027D0000084F185E02DC501BE01A30194018701AC
:1027E00019952196CC15DD0584F3DF91CF911F91CA
:1027F0000F91FF90EF90DF90CF90BF90AF909F90A0
:102800008F907F906F900895EF92FF920F931F9398
:10281000FC017B01A081B181208531850285138572
:102820001E960D90BC91A02D60E070E040E050E05D
:10283000FD0119951F910F91FF90EF9008952F9230
:102840003F924F925F926F927F928F929F92AF9240
:10285000BF92CF92DF92EF92FF920F931F93DF937D
:10286000CF93CDB7DEB72F970FB6F894DEBF0FBE6C
:10287000CDBF5C015E834D8318870F83FA86E9869E
:10288000CB86DC0118968D919C9119976817790772
:102890000CF0A4C01A968D919C911B97481759076C
:1028A0000CF09CC0EC2DF0E0FF87EE87CF01880F85
:1028B000991F8E0F9F1F880F991F860F971F18163D
:1028C00019060CF08BC0CF01F3E0880F991FFA9521
:1028D000E1F7840F951F181619060CF07FC085E0EC
:1028E000289FA00111245A8349832B011B011C82BC
:1028F0005C81553011F480E005C0E981FA81EA5726
:10290000FD4F84912C863D866D807E8043011B8225
:10291000C82EDD2480FF1CC0D501ED91FC91BB8544
:10292000B13049F40480F581E02DC501B201A30165
:102930002F81388522C00684F785E02DC5016C857E
:102940007D85A4012E853F858901EF80F88423C011
:10295000E985FA852F813885E217F307E9F0D5017B
:10296000ED91FC91BB85B13051F40480F581E02DEF
:10297000C501B201A30129853A8519950DC00684C8
:10298000F785E02DC5016C857D85A4012E853F85E9
:102990008901E984FA841995EB81EF5FEB832E8539
:1029A0003F85820E931E0894611C711CE83021F053
:1029B000D594C7948C2DACCF3C813F5F3C834E8532
:1029C0005F85240E351E0894411C511C89819A8113
:1029D00001969A838983363009F08ACF2F960FB6F5
:1029E000F894DEBF0FBECDBFCF91DF911F910F9145
:1029F000FF90EF90DF90CF90BF90AF909F908F901F
:102A00007F906F905F904F903F902F900895CF925E
:102A1000EF92FF920F931F93CF93DF93EC01262F3A
:102A20006A3061F42C8930E003E0220F331F0A95ED
:102A3000E1F78E859F85820F931F37C06D30C9F1F6
:102A40006C857D854E855F8508891989EA88FB88B4
:102A5000CC880E941F142C8986E0289FB001112485
:102A60008C859D85680F791F7D876C878E8988236B
:102A700001F1422F50E08AEF9FEF9C01429FC0017D
:102A8000439F900D529F900D112428853985820F08
:102A9000931F861797076CF413E0440F551F1A9580
:102AA000E1F78E859F85840F951F9F878E871D86F2
:102AB0001C8681E090E0DF91CF911F910F91FF90F4
:102AC000EF90CF900895FC017587648757874687FC
:102AD0000895FC01662309F461E0648B0895FC010C
:102AE000668B08950895DC0158968C915897882339
:102AF00029F06EBD0DB407FEFDCF089530E840E02B
:102B000050E070E0832F90E0862397235996ED9153
:102B1000FC915A9796962C919697892B21F080815B
:102B2000822B808304C080812095282320835B969C
:102B3000ED91FC915C97808197969C919797892B5A
:102B400080835B96ED91FC915C97908197968C9138
:102B5000979780958923808336954F5F5F4F4830E4
:102B6000510581F608950F931F938C01DC015F9648
:102B7000ED91FC919097908199968C919997809581
:102B8000892380835D96ED91FC915E979081989664
:102B90008C91809589238083C8010E947315D80188
:102BA0005D96ED91FC915E97808198969C91892B22
:102BB00080831F910F9108950F931F938C01DC0167
:102BC0005F96ED91FC919097808199969C91999751
:102BD000892B80835D96ED91FC915E97908198960C
:102BE0008C91809589238083C8010E947315D80138
:102BF0005D96ED91FC915E97808198969C91892BD2
:102C000080831F910F910895CF92DF92EF92FF92F0
:102C10000F931F937C01162FC42ED22E6AE20E94BE
:102C2000B315C70160E00E94DC15F70162A5610FD2
:102C3000C7010E94DC15C70160E00E94DC15F701A6
:102C400062A56D0DC7010E94DC15C7016BE20E94F1
:102C5000B315C70160E00E94DC15F70163A56C0D98
:102C6000C7010E94DC15C70160E00E94DC15F70176
:102C700063A5600FC7010E94DC15C7016CE20E94CA
:102C8000B3151F910F91FF90EF90DF90CF900895B3
:102C9000FF920F931F93CF93DF93EC01F22E132F2C
:102CA00077FD2EC088859985681779074CF557FD03
:102CB00027C08A859B854817590714F5262F2F5F53
:102CC000042F0F5FCE010E940416EF8DF8A18081C2
:102CD00099A5892B8083ED8DFE8D908188A58095A7
:102CE00089238083CE01612F0E947315CE016F2D41
:102CF0000E947315ED8DFE8D808198A5892B8083B0
:102D0000DF91CF911F910F91FF900895DF92EF9285
:102D1000FF920F931F93CF93DF93EC01FB01790197
:102D2000D02E8885998568177907D4F52A853B8543
:102D300042175307ACF5C701840F951F28173907B1
:102D40001CF47901E41AF50A042F01500E0DCE018E
:102D50006E2F2E2F0E940416EF8DF8A1808199A569
:102D6000892B8083ED8DFE8D908188A580958923A8
:102D7000808308C0CE01612F0E947315CE016D2D96
:102D80000E9473150894E108F1088FEFE8168FEFA1
:102D9000F80681F7ED8DFE8D808198A5892B8083C3
:102DA000DF91CF911F910F91FF90EF90DF900895E9
:102DB000DF92EF92FF920F931F93CF93DF93EC017B
:102DC000FA017901D02E2885398562177307D4F569
:102DD0008A859B8548175907ACF5C701860F971F51
:102DE000281739071CF47901E61AF70A262F215013
:102DF0002E0DCE014E2F0E2F0E940416EF8DF8A13E
:102E0000808199A5892B8083ED8DFE8D908188A589
:102E100080958923808308C0CE01612F0E9473159D
:102E2000CE016D2D0E9473150894E108F1088FEF13
:102E3000E8168FEFF80681F7ED8DFE8D808198A55D
:102E4000892B8083DF91CF911F910F91FF90EF909D
:102E5000DF900895EF92FF920F931F93FC017B0187
:102E6000A081B18120853185028513851E960D9044
:102E7000BC91A02D60E070E040E050E0FD011995AC
:102E80001F910F91FF90EF900895AF92BF92CF9254
:102E9000DF92EF92FF920F931F93CF93DF936C011A
:102EA0005901E801DC0118962D913C9119976217A0
:102EB00073070CF057C01A96ED91FC911B974E17B3
:102EC0005F070CF04FC0C501860F971F2817390701
:102ED0001CF45901A61AB70ACE01840F951FE817F2
:102EE000F9071CF4EF01C41BD50B262F21502A0D26
:102EF000042F01500C0FC6010E940416D6015F96E4
:102F0000ED91FC919097808199969C919997892B4E
:102F100080835D96ED91FC915E97908198968C915F
:102F20008095892380838E010EC0C6016F2D0E947B
:102F30007315C6016E2D0E94731521971C161D0670
:102F4000A4F3015010401016110614F4E501F6CF59
:102F5000D6015D96ED91FC915E97808198969C914B
:102F6000892B8083DF91CF911F910F91FF90EF907C
:102F7000DF90CF90BF90AF900895662311F460E288
:102F800001C061E20E94B3150895AF92BF92CF9243
:102F9000DF92EF92FF920F931F93CF93DF935C0129
:102FA000FB01EB012196D49031C08E010F5F1F4FC2
:102FB000FE016491C5010E94B31578010894E11CDB
:102FC000F11CF801C4900C2D0F77E701102F08C0F9
:102FD000FE012196E491C5016E2F0E94DC1511506F
:102FE0001123B1F7E701C00FD11DC7FE0EC0FE01CE
:102FF0008491682F70E06F3F710511F464EF71E008
:10300000219680E090E00E941F0BDA94DD2069F6A3
:10301000DF91CF911F910F91FF90EF90DF90CF90B4
:10302000BF90AF9008950F931F93CF93DF93EC0160
:103030008B011BA61AA68AA161E00E94DA0B89A166
:1030400061E00E94DA0BE9A14E2F50E0FA01EC5446
:10305000FE4FE491F0E0EE0FFF1FE058FE4F859128
:1030600094919E8F8D8FEAA12E2F30E0F901EC54C0
:10307000FE4FE491F0E0EE0FFF1FE058FE4F859108
:10308000949198A38F8F46505E4FFA01849188A740
:1030900026503E4FF901849189A7888D882361F0DD
:1030A0000E943E1980E00E942D1981E00E941F19A4
:1030B00080E00E9428193DC08DA161E00E94DA0BDA
:1030C0008CA161E00E94DA0BEDA14E2F50E0FA01D5
:1030D000EC54FE4FE491F0E0EE0FFF1FE058FE4F7E
:1030E000A591B491BC8FAB8FECA12E2F30E0F901EC
:1030F000EC54FE4FE491F0E0EE0FFF1FE058FE4F5E
:10310000859194919A8F898F46505E4FFA019491E0
:103110009FA326503E4FF90184918EA38C919095E8
:1031200098239C93E98DFA8D90818EA180958923B7
:103130008083ED8DFE8D908188A580958923808385
:103140008BA1882309F161E00E94DA0B8BA161E079
:103150000E948D0C64EF71E080E090E00E941F0BF4
:103160008BA160E00E948D0C64EF71E080E090E044
:103170000E941F0B8BA161E00E948D0C64EF71E037
:1031800080E090E00E941F0B0115110521F0CE0197
:10319000B8010E94C517DF91CF911F910F9108953B
:1031A0001F93CF93DF93EC01162F61E877E00E9425
:1031B0001318112351F4CE016CEB77E00E94C51770
:1031C00082E08AA781E08BA705C0CE0169EC77E099
:1031D0000E94C517CE0166ED77E00E94C517123038
:1031E00041F4CE0166E30E94B315CE0160EC0E946B
:1031F000DC151F8BDF91CF911F910895DF92EF9225
:10320000FF920F931F938C01F62EE42ED22E60E8CE
:1032100070E040EA50E00E9476128DED92E0F801F5
:1032200091838083F1A2E2A2D3A281E0808F15A2D4
:1032300014A21F910F91FF90EF90DF9008958823C3
:1032400019F48CB5806202C08CB58F7D8CBD089559
:103250009CB5937F982B9CBD08952CB5382F337067
:103260002C7F322B3CBD2DB590E09595879595959B
:10327000879581702E7F822B8DBD089584E361E058
:103280000E94DA0B83E361E00E94DA0B85E361E0E0
:103290000E94DA0B84E360E00E948D0C83E360E01F
:1032A0000E948D0C85E361E00E948D0C8CB58061DD
:1032B0008CBD8CB580648CBD0895AF92BF92CF92C7
:1032C000DF92EF92FF920F931F93CF93DF93EC0166
:1032D000A880B980CA80DB80A114B104C104D104E4
:1032E00041F484E2A82E89EDB82E8BE5C82E87E044
:1032F000D82EC601B5012DE133EF41E050E00E9428
:10330000871D27EA31E440E050E00E941F1D7B0149
:103310008C01C601B5012DE133EF41E050E00E9480
:10332000871DCA01B9012CEE34EF4FEF5FEF0E9409
:103330001F1D6E0D7F1D801F911F97FF04C06150E0
:10334000704080409048688379838A839B839B0187
:10335000AC015F77B901CA01DF91CF911F910F9145
:10336000FF90EF90DF90CF90BF90AF9008950E94B4
:103370005D1908958EE992E00E945D1908956093A9
:103380009E0270939F028093A0029093A1020895E1
:10339000F8940C94A81D5058BB27AA270ED04DC1F5
:1033A0003ED130F043D120F031F49F3F11F41EF4B0
:1033B00033C10EF4E095E7FB29C1E92F4FD180F32B
:1033C000BA17620773078407950718F071F49EF522
:1033D00067C10EF4E0950B2EBA2FA02D0B01B90199
:1033E00090010C01CA01A0011124FF27591B99F07B
:1033F000593F50F4503E68F11A16F040A22F232F87
:10340000342F4427585FF3CF469537952795A795D6
:10341000F0405395C9F77EF41F16BA0B620B730B7D
:10342000840BBAF09150A1F0FF0FBB1F661F771FEE
:10343000881FC2F70EC0BA0F621F731F841F48F4A3
:10344000879577956795B795F7959E3F08F0B3CF29
:103450009395880F08F09927EE0F97958795089513
:103460000CD0EBC0E3D040F0DAD030F021F45F3F75
:1034700019F0CCC0511115C1CFC0F0D098F39923E9
:10348000C9F35523B1F3951B550BBB27AA27621728
:103490007307840738F09F5F5F4F220F331F441F6D
:1034A000AA1FA9F333D00E2E3AF0E0E830D09150A5
:1034B0005040E695001CCAF729D0FE2F27D0660F92
:1034C000771F881FBB1F261737074807AB07B0E8D1
:1034D00009F0BB0B802DBF01FF2793585F4F2AF0E7
:1034E0009E3F510568F092C0DCC05F3FECF3983E10
:1034F000DCF3869577956795B795F7959F5FC9F744
:10350000880F911D9695879597F90895E1E0660FCC
:10351000771F881FBB1F621773078407BA0720F045
:10352000621B730B840BBA0BEE1F88F7E0950895AE
:1035300004D06894B111B5C0089598D088F09F5711
:1035400090F0B92F9927B751A0F0D1F0660F771FEF
:10355000881F991F1AF0BA95C9F712C0B13081F0CF
:103560009FD0B1E008959CC0672F782F8827B85F5F
:1035700039F0B93FCCF3869577956795B395D9F730
:103580003EF490958095709561957F4F8F4F9F4F3A
:103590000895E89409C097FB3EF490958095709546
:1035A00061957F4F8F4F9F4F9923A9F0F92F96E98F
:1035B000BB279395F695879577956795B795F11104
:1035C000F8CFFAF4BB0F11F460FF1BC06F5F7F4FA1
:1035D0008F4F9F4F16C0882311F096E911C07723B3
:1035E00021F09EE8872F762F05C0662371F096E8BC
:1035F000862F70E060E02AF09A95660F771F881F8B
:10360000DAF7880F9695879597F9089597F99F6748
:1036100080E870E060E008959FEF80EC089500245A
:103620000A941616170618060906089500240A9427
:1036300012161306140605060895092E0394000CAD
:1036400011F4882352F0BB0F40F4BF2B11F460FF3C
:1036500004C06F5F7F4F8F4F9F4F089557FD905865
:10366000440F551F59F05F3F71F04795880F97FB46
:10367000991F61F09F3F79F0879508951216130600
:103680001406551FF2CF4695F1DF08C0161617062F
:103690001806991FF1CF8695710561050894089564
:1036A000E894BB2766277727CB0197F908950EF09A
:1036B00023C1B2CF6894AACFD9DFC8F39923D1F33D
:1036C000C6F3DF93CF931F930F93FF92C92FDD278C
:1036D00088232AF02197660F771F881FDAF720E0EA
:1036E00030E040E85FEB9FE3883920F0803E30F027
:1036F00021968F7751DEE4EEF0E003C04DDEE1E18C
:10370000F1E008D18B01BE01EC01FB2E6F5771096E
:103710007595771F880B990B3EDF28E132E741E36F
:103720005FE316D0AF2D9801AE01FF900F911F916E
:10373000CF91DF9142DE81CF0BD07FCF70DF28F0B9
:1037400075DF18F0952309F061CF66CF1124A9CF5A
:1037500085DFA0F3959FD1F3950F50E0551F629F31
:10376000F001729FBB27F00DB11D639FAA27F00DDA
:10377000B11DAA1F649F6627B00DA11D661F829F01
:103780002227B00DA11D621F739FB00DA11D621FE6
:10379000839FA00D611D221F749F3327A00D611D03
:1037A000231F849F600D211D822F762F6A2F1124E5
:1037B0009F5750408AF0E1F088234AF0EE0FFF1F38
:1037C000BB1F661F771F881F91505040A9F79E3F6F
:1037D000510570F01BCF65CF5F3FECF3983EDCF3F3
:1037E000869577956795B795F795E7959F5FC1F7AC
:1037F000FE2B880F911D9695879597F90895FA01EC
:10380000EE0FFF1F30962105310599F16115710505
:1038100061F48038BFE39B0749F1689490388105D3
:1038200061F08038BFEF9B0741F0992342F5FF3FDD
:10383000E1053105210511F1E8940894E795D901D6
:10384000AA2329F4AB2FBE2FF85FD0F310C0FF5F7F
:1038500070F4A695E0F7F73950F019F0FF3A38F414
:103860009F779F930CD00F9007FC905808953EF0DF
:10387000D3CE60E070E080E89FE308954FE79F7744
:103880005F934F933F932F9317DF2F913F914F916A
:103890005F9152DF05C019F40EF0B8CE01CFBCCE57
:1038A000E5DEC8F39638C0F707F80F92E8942BE3EB
:1038B0003AEA48EB5FE74EDF0F920F920F924DB757
:1038C0005EB70F9289D0EEE3F1E024D04F915F9183
:1038D000EF91FF91E595EE1FFF1F49F0FE57E0685D
:1038E0004427EE0F441FFA95E1F74195550B40D060
:1038F0000F9007FE34C008959F3F31F0915020F49F
:10390000879577956795B795880F911D96958795BB
:1039100097F90895DF93CF931F930F93FF92EF9240
:10392000DF927B018C01689405C0DA2EEF0110DF75
:10393000FE01E894A5912591359145915591AEF3FD
:10394000EF013BDDFE019701A801DA9479F7DF90E2
:10395000EF90FF900F911F91CF91DF9108959B0100
:10396000AC0160E070E080E89FE37ACD4FCEC4CF39
:103970007DDEE8F39923D9F3940F511DBBF39150E9
:10398000504094F059F0882332F0660F771F881F5B
:1039900091505040C1F79E3F510544F7880F911D4B
:1039A0009695879597F908955F3FACF0983E9CF007
:1039B000BB27869577956795B79508F4B160939581
:1039C000C1F7BB0F58F711F460FFE8CF6F5F7F4F6F
:1039D0008F4F9F4FE3CF65CEFA01DC01AA0FBB1FCB
:1039E0009B01AC01BF5728F4222733274427507886
:1039F0001FC0B75188F4AB2F002446953795279503
:103A0000011CA395D2F3002069F0220F331F441F3D
:103A1000B395DAF30DD0BFCC61307105A0E88A0709
:103A2000B94630F49B01AC01662777278827907848
:103A3000309621F020833183428353830895629F1F
:103A4000D001739FF001829FE00DF11D649FE00D96
:103A5000F11D929FF00D839FF00D749FF00D659FF7
:103A6000F00D9927729FB00DE11DF91F639FB00DF6
:103A7000E11DF91FBD01CF0111240895AA1BBB1B35
:103A800051E107C0AA1FBB1FA617B70710F0A61B5E
:103A9000B70B881F991F5A95A9F780959095BC017F
:103AA000CD01089597FB092E07260AD077FD04D093
:103AB000E5DF06D000201AF4709561957F4F0895D8
:103AC000F6F7909581959F4F0895A1E21A2EAA1BB3
:103AD000BB1BFD010DC0AA1FBB1FEE1FFF1FA217BE
:103AE000B307E407F50720F0A21BB30BE40BF50BBB
:103AF000661F771F881F991F1A9469F76095709544
:103B0000809590959B01AC01BD01CF01089597FB75
:103B1000092E05260ED057FD04D0D7DF0AD0001C91
:103B200038F450954095309521953F4F4F4F5F4F5A
:103B30000895F6F790958095709561957F4F8F4F1A
:103B40009F4F0895EE0FFF1F0590F491E02D1994FB
:043B5000F894FFCF17
:103B54000A2047414D4520202020200A0A00204FFA
:103B64005645520A0A00202020202053434F524534
:103B74003A20000A20544852454553212050555AB2
:103B84005A4C452047414D4520200A0A0020202058
:103B940020202053434F52453A20000A0020202081
:103BA4002020202020202020202B000A0A00200092
:103BB40020207C00207C00007C002067616D65452E
:103BC4006E643A200020726573706F6E73653A20DC
:103BD4000020637572736F72583A20002063757207
:103BE400736F72593A20002053454C3D2000010068
:103BF40000000100000400040101000200030006AB
:103C04000000000000BE0F1611520F830F630FACAB
:103C14000F0000000007151611151194129413B02B
:103C2400134013CF13041472150000000007151677
:103C340011481694128616D816401345172A17BD34
:023C4400170067
:00000001FF
